:020000022000DC
:1000000000400020712A0200C52A0200910302006C
:1000100000000000000000000000000000000000E0
:10002000000000000000000000000000C72A0200DD
:100030000000000000000000C92A0200CB2A0200D4
:10004000CD2A0200CD2A02007D420200CD2A020004
:10005000C157020000000000E54E02009D5D020055
:10006000CD2A0200CD2A0200CD2A0200CD2A0200AC
:10007000CD2A0200CD2A0200CD2A0200CD2A02009C
:10008000CD2A0200A1390200CD2A0200CD2A0200A9
:10009000ED3902003148020075560200CD2A0200F7
:1000A000CD2A0200CD2A020000000000000000005E
:1000B0000000000000000000000000000000000040
:1000C00011DF7047181CC046B0B584B000AF78602F
:1000D0003960164BFB60FA687B68D31A9AB23B68AA
:1000E000FF21101C08402C215D5C00242C40204383
:1000F0005854120A91B22D229C5C002020400143EA
:1001000099543B68191C2E313B682C229A5C2D2097
:100110001B5C1B0213439BB27A68081C111C1A1C3F
:1001200002F03EFCBD4604B0B0BDC0460040002019
:10013000B0B588B000AFF860B9607A605F4B181C4A
:1001400002F00EF87B68181C02F00AF85C4B181CD1
:1001500002F006F85B4B181C02F002F83B1C083357
:10016000181C042102F018F8554B181C01F0F8FF78
:10017000554B181C01F0F4FF3B1C0C33181C0421D8
:1001800002F00AF84E4B181C01F0EAFFFFF798FF47
:100190008023DA058023D9054C4BCB580221194323
:1001A0004A4BD1504A4B1B687B617B69197800220E
:1001B0000A4005210A431A70597800220A40572143
:1001C0000A435A70997800220A40422149420A4360
:1001D0009A70D97800220A405B2149420A43DA70BA
:1001E0007B68181C02F02AFC031C1F2B05D97B68B6
:1001F000181C02F023FC031C00E02023FB617B6938
:10020000191D7A68FB69081C111C1A1C02F0C8FB36
:100210007B69BA68FF21101C084024215D5C002422
:100220002C4020435854100AFF21084025215D5CD2
:1002300000242C4020435854100CFF210840262154
:100240005D5C00242C4020435854110E27229C5CF6
:1002500000202040014399547B69FA68FF21101C5B
:10026000084028215D5C00242C4020435854100A8B
:10027000FF21084029215D5C00242C402043585474
:10028000100CFF2108402A215D5C00242C402043F3
:100290005854110E2B229C5C00202040014399549D
:1002A0003B1C1433BB617B69BA69101C191CFFF736
:1002B0000BFF00BEBD4608B0B0BDC046906C02004A
:1002C0009C6C0200A06C0200B06C02001C050000D7
:1002D0008C6C020080B582B000AF021C3960BB1D7F
:1002E0001A80BB1D1A8805493B68081C111C1A1C82
:1002F000FFF71EFFBD4602B080BDC046EFBEADDEBB
:1003000080B584B000AF78608023DA058023D905FA
:100310001D4BCB58022119431B4BD1501B4B1B6863
:10032000FB60FB68197800220A40592149420A43C0
:100330001A70597800220A40422149420A435A70F1
:10034000997800220A40532149420A439A70D97889
:1003500000220A40222149420A43DA70FB681A1D32
:100360007B68101C191C042202F01AFB7B68043302
:10037000BB60BA68FB68101C191CFFF7A5FE00BE25
:10038000BD4604B080BDC0461C0500008C6C020058
:10039000EFF30880B4E7C046C0DF7047181CC046C2
:1003A000C2DF7047181CC046C4DF7047181CC04627
:1003B000C5DF7047181CC046C6DF7047181CC04612
:1003C000C7DF7047181CC046CCDF7047181CC046FA
:1003D000CDDF7047181CC046D1DF7047181CC046DF
:1003E000D3DF7047181CC046D4DF7047181CC046C6
:1003F000D6DF7047181CC046DADF7047181CC046AD
:10040000DDDF7047181CC046E7DF7047181CC04688
:1004100090B583B000AF786039607B68002B4FD017
:100420003B68002B4CD03B68DB781A1C022313403E
:1004300015D07A683B680433101C191C082202F09E
:10044000AFFA7B6800229A607B6800229A817B6801
:100450000122DA813B68181C01F03AFB30E07B682E
:100460003A689A603B681A887B689A803B68181CD7
:1004700000F0E6F8031C1A1C7B68DA807B68002217
:100480001A703B681B88181C062106F04FFB031CE2
:100490009BB2DCB23B681B88181C062106F08AFB65
:1004A0000B1C9BB25A1E9341DBB2E318DAB27B6895
:1004B0005A707B680322DA817B68052252429A8156
:1004C000BD4603B090BDC04680B584B000AF786033
:1004D00039603B1C0F3300221A702BE03B1C0F339A
:1004E0001A7819482021131C9B009B18DB00C318A5
:1004F0005B189A887B681B889A4214D13B68002B52
:1005000004D03B683A1C0F3212781A703B1C0F3330
:100510001A78131C9B009B18DB001A1C20320A4B14
:10052000D31804330CE03B1C0F333A1C0F32127803
:1005300001321A703B1C0F331B78022BCED90023DB
:10054000181CBD4604B080BD3424002080B584B0A2
:1005500000AF78600023FB603B1C0B3300221A7055
:100560002AE03B1C0B331A7819482021131C9B00EE
:100570009B18DB00C3185B189B88002B15D13B1C14
:100580000B331A78131C9B009B18DB001A1C2032BB
:100590000F4BD3180433FB607B68002B12D07B68B1
:1005A0003A1C0B3212781A700CE03B1C0B333A1CCD
:1005B0000B32127801321A703B1C0B331B78022B62
:1005C000CFD900E0C046FB68181CBD4604B080BD12
:1005D0003424002080B582B000AF021CFB1D1A70CD
:1005E000FB1D1B78181CFFF7E3FE0023181CBD46FB
:1005F00002B080BD80B584B000AF021CFB1D1A7034
:10060000FB1D1A783B1C0F33101C191CFFF7FCFE56
:100610003B1C0F331B78181CBD4604B080BDC04680
:1006200080B582B000AF78607B689B68181C01F0D1
:100630004FFA7B6800229A60BD4602B080BDC0467A
:1006400090B585B000AF78607B681A1D7B681B8809
:100650003C1C0E34101C191C002204F07FF8031CF3
:1006600023803B1C0E331B88181CBD4605B090BD73
:1006700080B584B000AF78607B685B781A1C131C6F
:100680005B009B185B00181C01F04AF9031CFB601F
:10069000FB68002B17D07B6805331B781A1C3B1CAA
:1006A0000A3312021A807B6804331B78191C3B1C26
:1006B0000A333A1C0A3212888A181A80FB683A1CDC
:1006C0000A3212881A80FB68181CBD4604B080BD2F
:1006D00080B586B000AF021CFB1D1A703B1C17339F
:1006E00001221A70FB1D1A783B1C0F33101C191CB9
:1006F000FFF78AFEFB1D1B78181CFFF755FE031C35
:100700003B613B69002B03D13B1C173300221A705D
:100710003B1C17331B78181CBD4606B080BDC04675
:1007200080B586B000AFB9607A601A1C3B1C0F33ED
:10073000011C19703B1C0E331A7000237B613B1C9B
:100740000F331B78181CFFF755FF031C002B07D035
:100750003B1C0F331B78181CFFF73CFF031C7B610D
:100760007B69002B4ED1BB685978BB68DA783B1C9B
:100770000F3318783B1C0E331B78FFF711FE031C58
:100780007A69D3187B61BB689B783A1C0F32127868
:10079000101C191CFFF71CFE031C7A69D3187B611F
:1007A000BB689B883A1C0F321278101C191CFFF78B
:1007B00013FE031C7A69D3187B617B6819887B68F8
:1007C0009A787B68DB78381C0F300078FFF708FEDA
:1007D000031C7A69D3187B613B1C0F331B78181CF0
:1007E000FF21FFF709FE031C7A69D3187B613B1CCC
:1007F0000F331B78181C0021FFF7FAFD031C7A69E0
:10080000D3187B617B695A1E9341DBB2181CBD462D
:1008100006B080BD80B588B000AF021CFB1D1A7009
:100820003B1C103300221A603B1C083300221A6064
:1008300000229A803B1C083342229A703B1C0833EA
:10084000474A9A80474AF91D20230978D154FB1D55
:100850001B78002B02D0012B2DD07BE0424B181CC3
:1008600001F07EFC3A1C08323B1C10330020111CA6
:100870001A1C0023FFF754FF031CFB61FB69002BCC
:1008800006D0FA69394B101CFE211A1CFFF750FCE8
:10089000E020FFF7B5FD031CBB61BB69002B06D050
:1008A000BA69324B101CFF211A1CFFF741FC0020D3
:1008B000FFF782FD4FE02E4B181C01F051FC3B1C52
:1008C000083310225A7080235B051B6E9AB2802376
:1008D0005B055B6E9BB253409AB280235B05196E39
:1008E00080235B055B6E4B401B0C9BB253409AB25E
:1008F0003B1C10331A803B1C103311229A703B1C96
:1009000010330022DA703B1C083342229A703B1CE1
:100910000833184A9A80E020FFF772FD031C7B61C0
:100920007B69002B08D0796986235A000F4B081C7D
:10093000111C1A1CFFF7FCFB3A1C08323B1C10333D
:100940000020111C1A1C0023FFF7EAFE0020FFF70D
:10095000BFFE00E0C0460023181CBD4608B080BDA5
:100960001101000034240020506D02005C6D020073
:10097000746D02004404000080B584B000AF78605C
:1009800039603B681B78013B9BB23A1C0E32191C44
:100990004900CB185B0013807B689B68002B3AD022
:1009A0007B6899683B1C0E331B883A689278CB1899
:1009B0001A717B6899683B1C0E331B8801333A68B7
:1009C000D278CB181A717B6899683B1C0E331B8850
:1009D00002333A681279CB181A717B6899683B1C0C
:1009E0000E331B8803333A685279CB181A717B682F
:1009F00099683B1C0E331B8804333A689279CB18F4
:100A00001A717B6899683B1C0E331B8805333A6862
:100A1000D279CB181A71BD4604B080BD80B582B0C2
:100A200000AF78607B68DB891AB27B685B789A429A
:100A300010DB7B689B68002B0CD07B689B68181CC4
:100A4000FFF7FEFD031C1A1C7B68DB889A4201D16C
:100A5000012300E00023181CBD4602B080BDC04643
:100A600080B588B000AFF860B9607A600023FB61A0
:100A7000BB681B78002B40D1BB68BB61BB680733E8
:100A80001B781B0299B2BB6806331B781A1C3B1CEF
:100A900016338A181A80FB68181CFFF7BFFF031C67
:100AA000002B0AD0FB689B68FB61FB69181C00F0F7
:100AB000B7FFFB68181CFFF7B3FDFB68DB883A1C27
:100AC000163212889A422FD0FB68181CFFF7A8FD37
:100AD000FA68BB69111C1A1C0823081C111C1A1C7B
:100AE00001F05EFFFB68181CFFF7C2FD021CFB68EB
:100AF0009A60FB680022DA8116E0BB681A78BB684E
:100B000001331B789A420FD8FB689B68002B0BD0EF
:100B1000FA68BB68101C191CFFF72EFFFB68DB8905
:100B200001339AB2FB68DA81FB69181CBD4608B034
:100B300080BDC04680B588B000AFF860B9607A600B
:100B4000FB68BB61FB689B68002B04D0FB68DB89FA
:100B50001BB2002B08DCFB68BA68101C191C0822A9
:100B600001F01EFF002368E0FB689B891BB2002B8D
:100B700007DCBA68BB69101C191C082201F010FFC1
:100B800044E0FB689B891AB2BB695B789A423DDC02
:100B9000FB689B891BB2013B9BB23A1C1632191CA5
:100BA0004900CB185B001380FB689B89DAB2BB68F5
:100BB0001A70BB680133BA6952781A700023FB615E
:100BC00021E03B1C16331A88FB69D218FB689B682E
:100BD0001B889A420EDAFB690233BA68D218FB68A6
:100BE00099683B1C16331888FB69C318CB181B790E
:100BF000137005E0FB690233BA68D31800221A703B
:100C0000FB690133FB61FB69052BDADDFB689B891E
:100C100001339AB2FB689A81FB689B891AB2BB695F
:100C20005B789A4208DDFB6800229A81FB68DB89C9
:100C3000013B9AB2FB68DA810123181CBD4608B05B
:100C400080BDC04680B58AB000AFF860B960FB1DBA
:100C50001A7000237B623B4A2023D35C002B18D1FF
:100C6000FB681A783B1C2333013A1A703B1C233370
:100C70001B78022B1ED83B1C23331A78131C9B00B5
:100C80009B18DB001A1C20322E4BD31804337B62D6
:100C900010E0FB681B78022B0CD8FB681B781A1C31
:100CA000131C9B009B18DB001A1C2032254BD31809
:100CB00004337B627B6A002B40D07B6A1A1C14329F
:100CC0003B1C1033101C191C0822FFF733FF031CB8
:100CD000FB61FB69002B28D17B6A5B6A181C01F061
:100CE00017F8031CBB617B6A1433181CFFF798FCD0
:100CF000BB69002B08D07B6A1A1C1432BB69101C1C
:100D0000191CFFF785FB09E00E4A2023D35C012B59
:100D100004D1FB681B78181CFFF75CFC094A9C2374
:100D2000D358591C074A9C23D150FB681A783B1CA6
:100D30001033101C08211A1CFFF742FBBD460AB0F5
:100D400080BDC04634240020B0B58EB000AFF8603E
:100D5000B960FB1D1A70BB687B637B6B03333B631D
:100D60000023FB623B1C183300221A605F4A2023D9
:100D7000D35C002B25D13B1C14337A6BD27A1A70CA
:100D80007B6B0C33BB623B1C14331B781A1CE023B7
:100D9000134011D0BB6A1888BB6A04331978BB6A48
:100DA00003331A783B1C183318803B1C1833997096
:100DB0003B1C1833DA7018E04D4B181C01F0D0F9C9
:100DC00091E0FB681878391C18313B1C18339A1CC9
:100DD0003B1C18330333FFF707FB031C002B04D025
:100DE000434B181C01F0BCF97DE03A1C18323B1C47
:100DF0001733101C191CFFF767FB031CFB62FB6A0F
:100E0000002B5CD0FB6A04337B623B1C1033042252
:100E10001A703B1C17331B780133DAB23B1C1033BA
:100E20005A70BB6801331B78002B34D0FB1D1B7834
:100E3000796A3A6B081C111C1A1CFFF711FE031C7F
:100E40003B623B6A002B4ED0284BDB69002B16D04F
:100E5000264BDB691C683B1C1C3304221A703B1CAC
:100E600017331B780133DAB23B1C1C335A70391C20
:100E700018313B1C1C333A6A081C1968A0473B6AAE
:100E8000181C00F025FE194AA023D358591C174AF4
:100E9000A023D15027E0154BDB69002B23D0134B47
:100EA000DB699C68BB681A78BB689D1C391C1831CB
:100EB0003B1C1033081C19682B1CA04713E03B6B2C
:100EC0001B78002B0FD13B6B01331B78002B0AD111
:100ED000064BDB69002B06D0044BDB695B683A1CD0
:100EE0001832101C9847BD460EB0B0BD3424002007
:100EF000846D020080B500AF0023181CBD4680BD84
:100F000080B500AF0023181CBD4680BDB0B598B0B9
:100F100000AF3B1C0C3318803B1C083319807A60EF
:100F20007B68002B01D101239DE13B1C08335B78DA
:100F3000002B00D036E17B680433FB65FB6D1B782A
:100F4000022B00D1A1E003DC012B00D18CE003E0F7
:100F5000032B06D0052B4AD0C54B181C01F000F915
:100F600080E13B1C243300221A6000225A600C20CE
:100F700000F0D6FC031CBB65BB6D002B00D16EE1FD
:100F8000BC4B9B69002B2DD0BB6D04337B657B6D07
:100F900005221A707B6D9A1C3B1C2433111C1A1CF1
:100FA0000823081C111C1A1C01F0FAFCB14B9B69A8
:100FB0001C683B1C2C3300221A703B1C2C33002273
:100FC0005A703B1C303304221A703B1C3033002211
:100FD0005A703A1C2C323B1C3033BD6D10681968B6
:100FE0002A1CA047BB6D181C00F072FD37E10820D9
:100FF00000F096FC031C3B653B6D002B00D130E1FB
:101000003B6D1A1DFB6D0233101C191C082201F0E8
:10101000C7FC3B6DDB7802221343DAB23B6DDA701A
:10102000944B9B691C683B1C343304221A703B1C94
:10103000343300225A703A1C38328F4B111C1A1C60
:101040000223081C111C1A1C01F0AAFC3A1C3432A1
:101050003B1C38333D6D106819682A1CA0473B6D56
:10106000181C00F035FDFCE0844B181C01F078F8EA
:10107000FB6D0233181C012101F08EF8FB6D9B788B
:10108000181CFFF7C7FB031CEDE0FB6D0233181CB7
:101090000021FFF719FA031C002B05D0784B181C10
:1010A00001F05EF80023DEE03B1C2333181CFFF741
:1010B0004DFA031CFB64734B181C01F051F8FB6CD8
:1010C000002B69D0704B181C01F04AF8F96CFA6DCE
:1010D0000223D2180423081C111C1A1C01F060FC06
:1010E000644A2023D35C002B29D13B1C1C330022F3
:1010F0001A6000229A803B1C1C3342229A703B1CCF
:101100001C33624A9A80624B181C01F029F8FB6C70
:10111000181C022101F040F83B1C23331B780133DB
:10112000D9B2FB6C3A1C1C32081C111C1A1C00237F
:10113000FFF7F6FA031C1A1C3B1C4A331A804D4B6E
:10114000DB69002B07D04B4BDB69DB68FA6D0232A1
:10115000101C022198474F4B181C01F001F8202069
:1011600000F0DEFB031C7B647B6C002B0FD07B6CE0
:101170001A1D7B6C1B88101C191C00F00FFD021C33
:10118000FB6C5A62444B181C00F0EAFF6AE0434BC8
:10119000181C00F0E5FF65E0414B181C00F0E0FF73
:1011A000022360E03B1C08335A783B1C4333013A6E
:1011B0001A703B1C43331B78022B4BD83B1C433328
:1011C0001A78131C9B009B18DB001A1C2032294B39
:1011D000D3180433FB63FB6B5A6A7B68101C191C21
:1011E00000F010FD031C002B2FD17B68181C00F0B1
:1011F00017FC2C4B181C00F0B3FF1E4A2023D35CB5
:10120000012B06D13B1C43331B78181CFFF760FAF7
:1012100028E0184A2023D35C002B23D1FB6BDB6929
:10122000002B1FD13B1C143300221A6000225A608D
:101230003B1C43331B780133DAB23B1C1433101CC4
:1012400008211A1CFFF7BCF80CE0174B181C00F023
:1012500087FF07E0154B181C00F082FF02E0C04634
:1012600000E0C0460023181CBD4618B0B0BDC04603
:10127000906D020034240020746E02009C6D020008
:10128000AC6D0200C86D0200DC6D02004404000079
:10129000E86D0200006E0200106E0200206E020077
:1012A000306E0200446E0200546E0200646E020052
:1012B00080B584B000AF3B1D00221A703B1D002298
:1012C0005A703B1D00229A703B1D0022DA703B1DB4
:1012D00000221A713B1D00225A713B1D00229A7197
:1012E0003B1D0022DA71FFF757F8031CFB603B1D22
:1012F0000020191CFFF768F8031CFA68D318FB607C
:10130000FB68002B01D1002300E00123181CBD461F
:1013100004B080BD80B582B000AF786039600F4BFB
:101320007A689A610D4B3A68DA610C4B0C4A9A6004
:101330000A4B0C4A1A61094B0B4A5A61074B0B4A7C
:10134000DA60064B04221A70094B1A68034B5A6084
:10135000024B181CBD4602B080BDC046342400209C
:10136000B1120200010F02000D0F0200F50E020083
:101370000024002080B584B000AF78607B685A7884
:101380003B1C0B331A707B681A783B1C0A331A70AB
:101390007B680233FB603B1C0B331B78062B50D061
:1013A0000ADC022B4FD002DC012B19D039E0032BD1
:1013B00025D0042B1ED034E0082B16D045DB092B9A
:1013C0002AD0802B2DD1234B181C00F0C9FE3A1CCB
:1013D0000A32FB68101C191C2022FFF7B5FC35E00F
:1013E0001D4B181C00F0BCFE30E01C4B181C00F01C
:1013F000B7FE2BE01A4B181C00F0B2FE26E0194B8A
:10140000181C00F0ADFE3A1C0A32FB68101C191CB7
:101410002022FFF717FC19E0134B181C00F0A0FE68
:1014200014E0124B181C00F09BFE3B1C0B33181CE5
:10143000012100F0B1FE0E4B181C00F091FEC046D9
:1014400004E0C04602E0C04600E0C046BD4604B02D
:1014500080BDC046786E02007C6E0200846E020081
:101460008C6E0200986E02009C6E0200A46E020058
:10147000A86E0200B0B584B000AF78600A1CBB1C37
:101480001A807B68FB603B1C0B33FA6892781A70F9
:101490003B1C0B331B78092B25D83B1C0B331B78CB
:1014A0001C4A0A339B00D31804331B68002B1AD044
:1014B0003B1C0B331B78174A0A339B00D3180433A9
:1014C0001B685C69FB685D68FA68F9680223C95AA1
:1014D00000230904090C1B0C1B040B431068191C86
:1014E0002A1CA04709E00B4B9B6A002B05D0094B37
:1014F0009B6AFA68101C08219847FB685B68002B00
:1015000004D0FB685B68181C00F0E2FABD4604B02A
:10151000B0BDC046E424002080B588B000AF3B1CBD
:101520000C3318803B1C083319807A607B68002BD1
:1015300003D07B68181C00F073FA3B1C14333A1C70
:101540000C3212881A803A1C14320223391C0831DA
:101550000988D1523B1C14337A685A603A1C143201
:10156000134B101C08211A1C03F082FA031CFB61A8
:1015700000F0ACF9031C9AB23B1C12331A800D4BDD
:10158000181C00F0EDFD3B1C1233181C012100F06B
:1015900003FE094B181C00F0E3FDFB69002B01D191
:1015A000002300E00123181CBD4608B080BDC046E2
:1015B00075140200B46E0200BC6E020080B582B0E9
:1015C00000AF78607B68002B18D07B681B78092BF4
:1015D00012D87B689B689847031C002B0AD17B6854
:1015E0001B78094A0A339B00D31804337A681A60BF
:1015F000002304E0012302E0022300E00123181C81
:10160000BD4602B080BDC046E424002090B585B040
:1016100000AF78607B68002B19D07B681B78092BA2
:1016200013D87B68DB683C1C0F349847031C23707D
:101630007B681B78084A0A339B00D31804330022C6
:101640001A603B1C0F331B7802E0022300E00123E9
:10165000181CBD4605B090BDE424002080B582B0C2
:1016600000AF78600E4A2423D35C01225340DBB2E2
:10167000002B0FD00A4B7A689A62094A2423012171
:10168000D154074B074A5A60054B074A9A60044BEE
:10169000064A1A60024B181CBD4602B080BDC04607
:1016A000E4240020BD1502000D16020019150200E9
:1016B00080B500AF0023181CBD4680BD80B500AFCB
:1016C0000023181CBD4680BD80B500AF0023181C48
:1016D000BD4680BD80B586B000AF3B1C0C33188082
:1016E0003B1C083319807A607B68002B35D07B68FF
:1016F000181C00F095F97B6804333B613B691B784B
:10170000012B00D025E0174B181C00F029FD002309
:101710007B611AE0144A7B690A339B00D3180433B7
:101720001B68002B0ED0104A7B690A339B00D3182C
:1017300004331B685B68181C00F012FD0B4B181C6F
:1017400000F00EFD7B6901337B617B69092BE1DDD4
:10175000C0467B68181C00F0BBF90023181CBD466E
:1017600006B080BDC06E0200E4240020BC6E020002
:1017700080B582B000AF78600C4B0D4A5A610B4BBC
:101780000C4A9A61094B0C4ADA61084B0B4A1A62FF
:101790000B4B1B681A1C054B1A61044B00221A7371
:1017A000084B181CBD4602B080BDC046E424002092
:1017B000B1160200BD160200C9160200D5160200BD
:1017C00004240020F024002080B582B000AF021C69
:1017D000FB1D1A70FB1D1B787F2B16D9164AFB1DAB
:1017E0001B78191C0F230B40083B9B0806339B00FA
:1017F000D3185A68FB1D1B78191C03230B40DB0010
:10180000DA40FF2313409B0911E00C4BFA1D1278BC
:1018100052B29208C0329200D258FB1D1B78191C9C
:1018200003230B40DB00DA40FF2313409B09181C05
:10183000BD4602B080BDC04600ED00E000E100E022
:1018400080B582B000AF0C4B5B68DB05DB0D7B60C5
:101850007B68002B0BD07B68103B3B603B68DBB2A6
:101860005BB2181CFFF7B0FF031CDBB200E00423DF
:10187000181CBD4602B080BD00ED00E02BDF7047B4
:10188000181CC0462CDF7047181CC04680B582B0BB
:1018900000AF78607B689B78002B05D07B689B78D5
:1018A000013BDAB27B689A70181CBD4602B080BD5D
:1018B00080B582B000AF78607B689B780133DAB284
:1018C0007B689A70181CBD4602B080BD80B586B09A
:1018D00000AF2423FB600C23BB60104B7B60002314
:1018E0007B6100233B610FE03B69FA6853437A68F0
:1018F000D3183B603B689B78002B02D17B69013396
:101900007B613B6901333B613A69BB689A42EBD327
:101910007B69181CBD4606B080BDC0463825002036
:1019200080B58EB000AF786000237B632423FB6218
:101930000C23BB62374B7B627B68202B01D90023D1
:1019400064E03B1C0B3300221A70FFF779FF031C85
:101950003B623B6A012B17D03B1C0B33181CFFF773
:101960008DFF031CFB61FB69022B01D172B60BE0FA
:10197000FB69BB61BB69002B06D0BA69264B101C02
:1019800038211A1CFEF7D4FB00233B6313E03B6BAA
:10199000FA6A53437A6AD3187B617B699B78002B80
:1019A00006D17B69181CFFF783FF7B697B6306E028
:1019B0003B6B01333B633A6BBB6A9A42E7D33B6AAA
:1019C000012B17D062B63B1C0B331B78181CFFF79A
:1019D00059FF031C3B613B69022B0BD03B69FB6049
:1019E000FB68002B06D0FA680B4B101C41211A1C17
:1019F000FEF79EFB7B6B002B07D07B689AB27B6B5C
:101A00001A80064B181C00F0ABFB7B6B181CBD4604
:101A10000EB080BD38250020D06E0200E86E0200B6
:101A200080B588B000AF78607B68002B47D03B1C46
:101A30000B3300221A70FFF703FF031CFB61FB69E5
:101A4000012B17D03B1C0B33181CFFF717FF031C8F
:101A5000BB61BB69022B01D172B60BE0BB697B6134
:101A60007B69002B06D07A69174B101C59211A1C70
:101A7000FEF75EFB7B68181CFFF71AFFFB69012B62
:101A800017D062B63B1C0B331B78181CFFF7FAFE0D
:101A9000031C3B613B69022B0BD03B69FB60FB687D
:101AA000002B06D0FA68084B101C5B211A1CFEF7AD
:101AB0003FFB064B181C00F053FB002300E0012302
:101AC000181CBD4608B080BDD06E0200E86E020052
:101AD00080B588B000AF78607B68002B53D03B1C8A
:101AE0000B3300221A70FFF7ABFE031CFB61FB698E
:101AF000012B17D03B1C0B33181CFFF7BFFE031C38
:101B0000BB61BB69022B01D172B60BE0BB697B6183
:101B10007B69002B06D07A691D4B101C63211A1CAF
:101B2000FEF706FB7B68181CFFF7B0FEFB69012B74
:101B300017D062B63B1C0B331B78181CFFF7A2FEB4
:101B4000031C3B613B69022B0BD03B69FB60FB68CC
:101B5000002B06D0FA680E4B101C68211A1CFEF7E9
:101B6000E7FA7B689B78002B07D17B680022DA704C
:101B7000084B181C00F0F4FA03E0074B181C00F0A7
:101B8000EFFA002300E00123181CBD4608B080BD19
:101B9000D06E0200EC6E0200F06E020080B584B0E0
:101BA00000AF786039600023FB603B68072B02D8E8
:101BB0000023FB601DE07B68FB603B68043B9B08E7
:101BC000DAB2FB681A70FB6800225A70FB680022C8
:101BD0009A70FB680022DA70084B181C00F0C0FAFB
:101BE000FB68181C012100F0D7FA054B181C00F007
:101BF000B7FAFB68181CBD4604B080BD2C6F02000C
:101C0000446F020080B58AB000AF786039603B1C39
:101C1000273301221A707B68002B00D16EE03B68ED
:101C2000002B6BD03B1C0F3300221A70FFF708FE0D
:101C3000031C3B623B6A012B17D03B1C0F33181C63
:101C4000FFF71CFE031CFB61FB69022B01D172B67E
:101C50000BE0FB69BB61BB69002B06D0BA692B4B5B
:101C6000101CB1211A1CFEF763FA7B685A787B6856
:101C70001B789A4204D13B1C273302221A7022E0BF
:101C80003B68181CFFF714FE7B68DB787A689B00C2
:101C9000D31804333A681A607B68DB785A1C7B6877
:101CA0001B78101C191C04F0E5FF0B1CDAB27B68D2
:101CB000DA707B685B780133DAB27B685A703B1C60
:101CC000273300221A703B6A012B17D062B63B1CE7
:101CD0000F331B78181CFFF7D5FD031C7B617B6954
:101CE000022B0BD07B693B613B69002B06D03A6924
:101CF000064B101CBB211A1CFEF71AFA3B1C27339B
:101D00001B78181CBD460AB080BDC046D06E0200CC
:101D100080B58AB000AF786000237B627B68002BBF
:101D200060D03B1C0F3300221A70FFF789FD031CA3
:101D30003B623B6A012B17D03B1C0F33181CFFF78B
:101D40009DFD031CFB61FB69022B01D172B60BE008
:101D5000FB69BB61BB69002B06D0BA69244B101C20
:101D6000C2211A1CFEF7E4F97B685B78002B1ED0B9
:101D70007B689B787A689B00D31804331B687B626E
:101D80007B685B78013BDAB27B685A707B689B7832
:101D90005A1C7B681B78101C191C04F06BFF0B1C71
:101DA000DAB27B689A707B6A181CFFF76FFD3B6A9A
:101DB000012B17D062B63B1C0F331B78181CFFF7A2
:101DC00061FD031C7B617B69022B0BD07B693B614E
:101DD0003B69002B06D03A69054B101CC9211A1C1F
:101DE000FEF7A6F97B6A181CBD460AB080BDC04646
:101DF000D06E020080B586B000AFF860B9607A603E
:101E00001F4B1B7F002B37D000237B6130E07B68AA
:101E1000002B1FD0C0467B69FA68D3181B781B09BA
:101E2000DBB2184AD35C181C02F07EFC031C002BAA
:101E3000F1D1C0467B69FA68D3181B781A1C0F23AE
:101E40001340104AD35C181C02F06EFC031C002BDC
:101E5000F0D10AE0C0467B69FA68D3181B78181CD9
:101E600002F062FC031C002BF5D17B6901337B611E
:101E70007A69BB689A42CAD3BD4606B080BDC046E7
:101E8000E82600208C6F020080B500AF0023181CEC
:101E9000BD4680BD80B500AF0023181CBD4680BD87
:101EA00080B584B000AF3B1C0C3318803B1C08335A
:101EB00019807A607B68002B21D03B1C08335B784B
:101EC000002B1CD07B68181CFFF7AAFD0E4B181CBA
:101ED00008210022FFF78EFF7B681A1D7B681B8894
:101EE000101C191C0122FFF785FF084B181C092143
:101EF0000022FFF77FFF7B68181CFFF7E9FD002336
:101F0000181CBD4604B080BD586F0200646F02000B
:101F100080B584B000AF78607B68002B1BD0104A7E
:101F20003D23D35C1A1C7B681A800023FB600CE005
:101F30000B491823FA688A18D3185A797968FB680C
:101F4000CB181A71FB680133FB607B681B881A1C75
:101F5000FB689A42ECDC0023181CBD4604B080BD2F
:101F6000E826002080B584B000AF78607B681B78DD
:101F7000042B00D980E09A00414BD3181B689F4680
:101F80003B1C0B331B780A2B08D002DC082B25D016
:101F90003BE00D2B02D07F2B20D036E0394A3D2389
:101FA000D35C002B59D00A2002F0BEFB0D2002F0BA
:101FB000BBFB344A3D23D35C181CFFF7B1FC031C68
:101FC000FB60FB68181CFFF7A3FFFB68181CFFF7FA
:101FD0007FFD2C4A3D230021D1543EE0294A3D2378
:101FE000D35C002B3BD0082002F09EFB202002F0A7
:101FF0009BFB082002F098FB224A3D23D35C013B67
:10200000D9B2204A3D23D15429E01E4A3D23D35C56
:102010001E2B26D81B4A3D23D35C191C3B1C0B33BB
:102020001A78184818234118CB185A71154A3D23BD
:10203000D35C1A1C134918238A18D3185B79181C0F
:1020400002F072FB0F4A3D23D35C0133D9B20D4A33
:102050003D23D15405E0C04604E0C04602E0C0463E
:1020600000E0C0463B1C0B33181C02F04BFB031C6A
:10207000002B85D000E0C046BD4604B080BDC04600
:10208000706F0200E826002080B588B002AF3B1CCC
:10209000123300221A803B1C134A1A603B1C202278
:1020A0005A603B1C114A9A603B1C80225200DA6045
:1020B0000F493A1C0F4B381C12300090081C111CA1
:1020C0001A1C032302F0B8F9031C7B617B69002B07
:1020D00004D1094B01221A77002300E00123181CC8
:1020E000BD4606B080BDC0465C2700207C2700208E
:1020F00050270020651F0200E826002090B583B01D
:1021000000AF78603960104B104A9A600E4B104A4D
:10211000DA600D4B0F4A1A610B4B0F4A5A610A4B9A
:1021200001221A700D4B1A68074B5A60064B3A6829
:102130009A61054B7A68683313CA13C3024B181CA3
:10214000BD4603B090BDC046E826002089200200AD
:10215000891E0200951E0200A11E02000824002014
:1021600080B584B000AF78600A4B1B7F002B0ED087
:102170007B68FB6007E0FB681B78181C02F0D4FA50
:10218000FB680133FB60FB681B78002BF3D1BD4675
:1021900004B080BDE826002080B582B000AF786032
:1021A0003960154B1B7F002B22D018E07B681B7811
:1021B0001B09DBB2114AD35C181C02F0B5FA7B682C
:1021C0001B781A1C0F2313400C4AD35C7A68013227
:1021D0007A60181C02F0A8FA202002F0A5FA3B68E9
:1021E0005A1E9341DBB23A68013A3A60002BDDD1C6
:1021F000BD4602B080BDC046E82600208C6F0200BC
:1022000080B582B000AF7860A023DB057A68C13268
:10221000FF3292000121D150BD4602B080BDC046C0
:1022200080B582B000AF78600A1CFB1C1A70A02336
:10223000DB05FA1C12789200111C7A68C132FF3259
:102240009200D150BD4602B080BDC04680B582B07C
:1022500000AF7860A023DA057B6801219940A123B3
:10226000DB00D150BD4602B080BDC04680B582B013
:1022700000AF7860A023DA057B6801219940024B0A
:10228000D150BD4602B080BD0C05000090B585B0B0
:1022900000AF041C081C111C1A1CFB1D1C70BB1D6C
:1022A00018707B1D19703B1D1A7001235B42FB6087
:1022B000BB6A002B00D183E0FB1D1B78002B03D1F0
:1022C000BB6A454A1A6007E0FB1D1B78012B00D052
:1022D00078E0BB6A414A1A60BB6A3A1C2432127821
:1022E0001A713B1D1B78181CFFF78AFF3B1C20331B
:1022F0001B78181CFFF784FF3B1C24331B78181C29
:10230000FFF77EFF3B1C24331B78181CFFF79EFF52
:102310007B1D1B78181C0021FFF782FFBB6A1A681F
:102320003B1C20331978A123DB00D150BB6A1A680B
:102330003B1D19782A4BD150BB6A1A687B1D19784E
:10234000A223DB00D150BB6A1A68264B80214905C5
:10235000D150BB1D1B78012B0ED002DC002B05D009
:102360001CE0022B0ED0032B12D017E0BB6A1A68B8
:102370001D4B0021D15015E0BB6A1A681A4B02218F
:10238000D1500FE0BB6A1A68174B0421D15009E005
:10239000BB6A1A68144B0621D15003E002235B424A
:1023A000FB6010E0BB6A1A6884235B000021D150F7
:1023B000BB6A1A68A023DB000121D150002306E08C
:1023C000C04600E0C046BB6A00221A60FB68181CC9
:1023D000BD4605B090BDC046003000400040004002
:1023E0000C050000240500005405000080B586B0EF
:1023F00000AFF8607B603B1C0B3319703B1C0A3349
:102400001A7000237B613B1C0A331978FA68184B59
:10241000D15000237B6102E07B6901337B61FA6864
:1024200084235B00D358002B03D17A69114B9A4265
:10243000F2D97A69C0239B019A4207D13B1C0B3326
:102440001B78181CFFF702FF00230CE0FA688423B6
:102450005B000021D150FA68A323DB00D358DAB225
:102460007B681A700123181CBD4606B080BDC046AB
:102470001C050000FF2F000080B582B000AF78601F
:102480007B68002B05D07B681B68002B01D00123E3
:1024900000E00023181CBD4602B080BD80B588B0A6
:1024A00000AFF860B9607A603B6001235B42BB61BA
:1024B000FB68181CFFF7E0FF031C01225340DBB24E
:1024C000002B00D078E0FB681B687B613B1C13335A
:1024D000FA6812791A70FB681B79181CFFF7C6FEA0
:1024E0000023FB6118E0FB697A68D3181A787869D1
:1024F0003B1C133319783B1C1233FFF777FF031C87
:1025000001225340DBB2002B03D002235B42BB61AC
:1025100053E0FB690133FB61FA69BB689A42E2D37D
:102520000023FB6118E0FB69BA6AD3181A7878694E
:102530003B1C133319783B1C1233FFF757FF031C66
:1025400001225340DBB2002B03D002235B42BB616C
:1025500033E0FB690133FB61FA693B689A42E2D3DD
:10256000FB6A002B02D13B68BB6126E03B1C1233A7
:1025700000221A700023FB6117E03B1C12331A780B
:10258000FB69396BCB187869391C13310978FFF76F
:102590002DFF031C01225340DBB2002B02D0FB694C
:1025A000BB610AE0FB690133FB61FA69FB6A9A428D
:1025B000E3D3FB6ABB6100E0C046FB681B79181CD3
:1025C000FFF744FEBB69181CBD4608B080BDC0467D
:1025D00080B588B004AFF860B9607A603B60FA6893
:1025E000BB687968009139680191B9690291101C42
:1025F00000210022FFF752FF031C181CBD4604B047
:1026000080BDC04690B583B000AF78601A4A1B4BBE
:10261000101C00211A1C00F0EDF9174B174A5A80C4
:10262000154B012252429A81134A88231B01002133
:10263000D152114A114B0021D1547B6818785C7833
:10264000240220439C7824042043DC782406204381
:10265000011C18795C79240220439C7924042043CE
:10266000DB791B0603431A1C034B081C58609A6055
:10267000BD4603B090BDC0467C2800207E08000007
:1026800090B583B000AF38607960244B3A685A60E7
:102690007A689A60214A224BD35C0133D9B21F4A2F
:1026A0001F4BD1541D4A1E4BD35C3C2B2FD91B4AC8
:1026B0001B4B0021D154194A88231B01D25A174BB6
:1026C0009A81164A88231B01D35A0133181C872389
:1026D000990004F0CFFA0B1C99B2104A88231B0111
:1026E000D1520E4A88231B01D35A0C4A02339B0055
:1026F000D118CC8800202040C880D3181989002226
:102700000A401A81074B181CFFF72AFD03E0064B0D
:10271000181CFFF725FDBD4603B090BD7C280020A6
:102720007E080000846F0200886F020080B500AF51
:10273000074A88231B01D35A054A02339B00D1184C
:10274000C988D3181B891B040B43181CBD4680BDC8
:102750007C280020B0B582B000AF78600D4A882395
:102760001B01D35A0B4A02339B00391D0888D1182C
:10277000CD8800242C402043C880B91D0888D31878
:10278000198900220A40111C021C0A431A81BD4605
:1027900002B0B0BD7C28002080B582B000AF786068
:1027A0007B681B88002B01D1044B03E07B681B88EE
:1027B000013B9BB2181CBD4602B080BD1B0200004D
:1027C000F0B585B000AF78607B68002B00D1DFE00A
:1027D0007B68181C0021202200F00CF96E4A882327
:1027E0001B01D25A3B1C0C331A807B6801221A70E1
:1027F0006A4B19685A687B68FF2008401D790024DD
:102800002C40204318710C0AFF2020405D790024E1
:102810002C40204358710C0CFF2020409D7900244F
:102820002C4020439871080EDD7900242C40204371
:10283000D871FF2010401D7A00242C4020431872CC
:10284000140AFF2020405D7A00242C402043587257
:10285000140CFF2020409D7A00242C4020439872C5
:10286000120ED87A002101400A43DA724A4B5868A6
:10287000011C9B681A1C7B68FF2008401D7B0024FC
:102880002C40204318730C0AFF2020405D7B00245D
:102890002C40204358730C0CFF2020409D7B0024CB
:1028A0002C4020439873080EDD7B00242C402043ED
:1028B000D873FF2010401D7C00242C402043187446
:1028C000140AFF2020405D7C00242C4020435874D3
:1028D000140CFF2020409D7C00242C402043987441
:1028E000120ED87C002101400A43DA743B1C0E33DF
:1028F00000221A8047E03B1C0C33181CFFF74CFFEA
:10290000031C1A1C3B1C0C331A803B1C0E3318880A
:102910003B1C0C331B88204A02339B00D118C9880A
:10292000D3181B891B040B43191C7A68031D9B00D9
:10293000FF200C1C0440D0180679002535402C439C
:1029400004710C0AFF200440D01846790025354058
:102950002C4344710C0CFF200440D01886790025CC
:1029600035402C438471080ED318D97900220A40CF
:10297000111C021C0A43DA713B1C0E333A1C0E3246
:10298000128801321A803B1C0E331B88022BB2D9ED
:10299000BD4605B0F0BDC0467C2800206000001098
:1029A00080B586B000AFF860B9607A60FB68002B34
:1029B00002D0BB68002B01D1002316E0FB683B610D
:1029C00000237B610CE0BB681A78FB681A707B6996
:1029D00001337B61FB680133FB60BB680133BB6083
:1029E0007A697B689A42EED33B69181CBD4606B0F3
:1029F00080BDC04680B586B000AFF860B9607A602F
:102A0000FB687B613B1C1333BA681A7007E0FB68F4
:102A10003A1C133212781A70FB680133FB607B6832
:102A20005A1E9341DBB27A68013A7A60002BEED1EC
:102A30007B69181CBD4606B080BDC04680B584B019
:102A400000AF78600023FB6002E0FB680133FB60AD
:102A50007B681B785A1E9341DBB27A6801327A6038
:102A6000002BF2D1FB68181CBD4604B080BDC046E7
:102A70000C4802680F210A4302600B490B4A0C4BB9
:102A80009B1A03DD043BC858D050FBDC491A094AA5
:102A9000094B9B1A02DD043BD150FCDC0748804700
:102AA00007480047240500405C7402000024002011
:102AB0003424002034240020C8370020D12A02000A
:102AC000355F0200FEE7FEE7FEE7FEE7FEE7C046F1
:102AD00080B500AF00F01EF8031C002B06D00A4B97
:102AE0000A4A1A600A4B802212021A6000F052F859
:102AF000031C002B05D08023DA05C123DB00012154
:102B0000D150BD4680BDC04604050040DFFF07C070
:102B1000186C004080B500AF1A4B1A68FF231340B1
:102B2000012B2AD1184B1A680F23134025D1174BBC
:102B30001A68F023134006D1154B1A68F02313408E
:102B400001D101231AE0114B1A68F0231340102B16
:102B500006D10F4B1A68F023134001D101230DE079
:102B60000A4B1A68F0231340302B06D1084B1A6821
:102B7000F023134001D1012300E00023181CBD46BF
:102B800080BDC046E00F00F0E40F00F0E80F00F059
:102B9000EC0F00F080B500AF0D4B1A68FF23134017
:102BA000012B11D10B4B1A680F2313400CD10A4B88
:102BB0001A68F0231340402B06D1084B1A68F02303
:102BC000134001D1012300E00023181CBD4680BD45
:102BD000E00F00F0E40F00F0E80F00F0EC0F00F061
:102BE00080B582B000AF021CFB1D1A70064BFA1DA7
:102BF0001278111C1F220A400121081C9040021C5F
:102C00001A60BD4602B080BD00E100E080B582B030
:102C100000AF021CFB1D1A70074AFB1D1B78191C14
:102C20001F230B400121081C9840031C191C802302
:102C3000D150BD4602B080BD00E100E080B582B059
:102C400000AF021CFB1D1A70084AFB1D1B78191CE3
:102C50001F230B400121081C9840031C191C8023D2
:102C60005B00D150BD4602B080BDC04600E100E02F
:102C700080B582B000AF021CFB1D1A70084AFB1D14
:102C80001B78191C1F230B400121081C9840031CB2
:102C9000191CC0235B00D150BD4602B080BDC046A8
:102CA00000E100E0B0B582B000AF021C3960FB1D4E
:102CB0001A70FB1D1B787F2B32D93049FB1D1B7806
:102CC0001A1C0F231340083B98082C4AFB1D1B7845
:102CD0001C1C0F232340083B9B0806339B00D31882
:102CE0005B68FA1D1278141C03222240D200FF24D4
:102CF000251C95402A1CD2431A403B689C01FF23A7
:102D00001C40FB1D1B781D1C03232B40DB00251CD6
:102D10009D402B1C1A43831D9B00CB185A6029E051
:102D2000174BFA1D127852B292081549F81D007817
:102D300040B28008C03080004158F81D0078041C63
:102D400003202040C000FF24251C8540281CC043D0
:102D5000084039688C01FF210C40F91D09780D1CD1
:102D600003212940C900251C8D40291C0143C03284
:102D70009200D150BD4602B0B0BDC04600ED00E0AB
:102D800000E100E080B582B000AF021CFB1D1A70AC
:102D9000FB1D1B787F2B16D9164AFB1D1B78191CAF
:102DA0000F230B40083B9B0806339B00D3185A683F
:102DB000FB1D1B78191C03230B40DB00DA40FF23AB
:102DC00013409B0911E00C4BFA1D127852B2920885
:102DD000C0329200D258FB1D1B78191C03230B40F4
:102DE000DB00DA40FF2313409B09181CBD4602B0EC
:102DF00080BDC04600ED00E000E100E080B582B09B
:102E000000AF0C4B5B68DB05DB0D7B607B68002B48
:102E10000BD07B68103B3B603B68DBB25BB2181C9D
:102E2000FFF7B0FF031CDBB200E00423181CBD4613
:102E300002B080BD00ED00E080B582B000AF7860E8
:102E40007A68032313405A425341DBB2181CBD4633
:102E500002B080BD80B582B000AF7860C046C04689
:102E6000C046C046C046C046C046C046C046C04632
:102E7000C046C046C046C0467B68013B7B60002B15
:102E8000ECD1BD4602B080BD80B582B000AF7860A5
:102E9000054AA123DB007968D15011200321FFF7F7
:102EA00001FFBD4602B080BD0010014080B500AFFB
:102EB0000C4AD1239B0080214902D150094AC123E9
:102EC0009B0080214902D1501120FFF7D1FE112033
:102ED000FFF786FE034B01221A602F20FFF7BAFF8F
:102EE000BD4680BD0010014080B500AF1120FFF746
:102EF0008DFE0A4AD2239B0080214902D150074A05
:102F0000C2239B0080214902D150044B01225A6008
:102F10002F20FFF79FFFBD4680BDC0460010014037
:102F200080B500AF024A034BD358181CBD4680BD84
:102F3000001001400405000080B582B000AF786049
:102F400039607A683B68D31A1B021B0A181CBD46FD
:102F500002B080BD80B582B000AF7860034AA8237C
:102F6000DB007968D150BD4602B080BD0010014041
:102F700080B586B000AF78604C4B19687A68131C36
:102F8000DB009B189B00CB18BB60494B1B680133CF
:102F900003D1474B7A681A6084E0BB685968434B99
:102FA0001868434B1A68131CDB009B189B00C3185E
:102FB0005B6899421ED83D4B19683D4B1A68131C3B
:102FC000DB009B189B00CA18384B1868384B1968EF
:102FD0000B1CDB005B189B00C3185968BB685B685F
:102FE000CB1A5360324B1A68BB681A62304B7A684E
:102FF0001A6057E0BB685B68FB602D4B1B687B6108
:103000002B4B1B683B6117E0284B19683A69131C6E
:10301000DB009B189B00CB185B68FA68D31AFB6037
:103020003B697B61214B19683A69131CDB009B18D3
:103030009B00CB181B6A3B613B6901330BD01B4BD8
:1030400019683A69131CDB009B189B00CB185A685F
:10305000FB689A42D8D33B69013313D0134B1968EC
:103060003A69131CDB009B189B00CA180F4B1868A9
:1030700039690B1CDB005B189B00C3185968FB689F
:10308000CB1A5360BB68FA685A60BB683A691A6227
:10309000064B19687A69131CDB009B189B00CB1840
:1030A0007A681A62BD4606B080BDC0460431002071
:1030B0001031002080B586B000AF7860374B1B68B8
:1030C0007B617B693B610FE03A697B689A420FD074
:1030D0003B697B61324B19683A69131CDB009B1812
:1030E0009B00CB181B6A3B613B690133ECD100E0CC
:1030F000C0463B6901334DD07A693B699A420BD196
:10310000274B1968254B1A68131CDB009B189B0082
:10311000CB181A6A214B1A60214B19683A69131CA3
:10312000DB009B189B00CB185B68FB601C4B19688D
:103130007A69131CDB009B189B00CA18184B18688F
:1031400039690B1CDB005B189B00C3181B6A1362F8
:10315000134B19687A69131CDB009B189B00CB1872
:103160001B6A3B613B69013315D00D4B19683A6905
:10317000131CDB009B189B00CA18094B186839699F
:103180000B1CDB005B189B00C3185968FB68CB184D
:10319000536000E0C046BD4606B080BD103100203F
:1031A0000431002080B500AF1120FFF747FDBD4678
:1031B00080BDC04680B500AF1420FFF73FFDBD467F
:1031C00080BDC04680B584B000AF7860134B1B68EB
:1031D000002B19D0114B1A687B6899697B68DB69F1
:1031E000081C191C9047031CFB60FB68BB60BB6894
:1031F000002B0FD0B968AA235A00094B081C111CD8
:103200001A1CFCF795FF05E07B689A697B68DB690F
:10321000181C9047BD4604B080BDC0462431002034
:103220009C6F020080B584B000AF2C4B1B6801334B
:1032300050D000237B60FFF773FE021C284B1B68F5
:10324000101C191CFFF778FE031CBB60234B1B6886
:10325000FB601EE0234B1968FA68131CDB009B1807
:103260009B00CB183B603B685A68BB689A4214D8F5
:103270003B685B68BA68D31ABB603B685B687A6876
:10328000D3187B603B681B6AFB603B68181CFFF728
:1032900099FFFB680133DDD100E0C046124B1A787C
:1032A000124B1B789A420CD1104B1B780133DAB2C7
:1032B0000E4B1A700D4B1B78022B02D10B4B0022C8
:1032C0001A700A4B1B781A1C094B92007968D1506E
:1032D000FFF770FFBD4604B080BDC046103100202E
:1032E0001431002004310020203100202131002041
:1032F0001831002080B582B000AF7860184B1A7882
:10330000184B1B789A4223D0154B1B780133DAB245
:10331000134B1A70124B1B78022B02D1104B002258
:103320001A700F4B1B781A1C0F4B9200D2587B68F7
:103330001A607B681A680D4B1B68D2180B4B1A6019
:103340000A4B1B681B021A0A084B1A60012303E090
:103350007B6800221A600023181CBD4602B080BDA5
:1033600020310020213100201831002014310020AC
:1033700080B586B000AF464B1B683B613B1C1733E2
:10338000444A12781A7069E0434B1A683B1C1733A1
:103390001B78DB00D318FB603B1C1633FA681278ED
:1033A0001A7054E0FB6859683B1C16331A78131CDA
:1033B0005B009B18DB00CB18BB603B1C16333A1C30
:1033C0001632127801321A70FB689B783A1C16325A
:1033D00012789A4203D13B1C163300221A70BB6844
:1033E0001B78022B02D0032B29D02EE02B4B19681F
:1033F000BB685A68131CDB009B189B00CB187B60D2
:103400007B681B7D002B21D0BB685B68181CFFF715
:1034100051FE7B6800221A7518E0204B19681C4B7E
:103420001A68131CDB009B189B00CB183B603B68A1
:1034300000221A753B681A6A154B1A6000E0C046F4
:10344000134B1B680133E8D101E000E0C046FB6884
:103450005B783A1C163212789A42A3D13B1C173380
:103460001B785A1E9341DBB23A1C1732391C1731B4
:10347000097801391170002B86D1054B1A683B6918
:10348000D31A5A1E9341DBB2181CBD4606B080BD4C
:1034900010310020083100200C31002004310020C0
:1034A00080B588B000AFF860B9607A600023FB6136
:1034B00042E0254B1968254B1A68131CDB009B184A
:1034C0009B00CB18BB61BB695A68FB689A4206D95E
:1034D000BB695A68FB68D21ABB695A6030E0BB69A5
:1034E0005B68FA68D31AFB60BB695B68FA69D3183A
:1034F000FB61BB6900225A60BB6900221A75134B3D
:103500001B687B61BB691A6A104B1A60BB691B6937
:10351000002B11D0BA68FB69D3181B021A0ABB69C9
:103520009A60BB691A69BB69DA607B681A68BB6913
:103530001A627B687A691A60044B1B680133B8D140
:10354000BD4608B080BDC0460431002010310020C7
:1035500080B58AB000AF7860664B1B68BB613B1CCE
:103560002733654A12781A70A8E0644B1A683B1C2E
:1035700027331B78DB00D3187B6194E07B68013331
:103580000ED07B683B625E4B19683A6A131CDB0005
:103590009B189B00CB18FB61FB691B6A7B603DE0BD
:1035A0007B6959687B691B781A1C131C5B009B188C
:1035B000DB00CB183B617B691B780133DAB27B6996
:1035C0001A707B691A787B699B789A4202D17B6971
:1035D00000221A703B695B683B62494B19683A6A82
:1035E000131CDB009B189B00CB18FB613B691B780D
:1035F000012B57D1FB691B7D002B53D13B699A6886
:10360000FB699A603B69DA68FB69DA603B691A69B1
:10361000FB691A613B695A69FB69DA61FB699A685F
:10362000384B1B68D31A1B021A0A374B9A420ED822
:10363000FB699A68334B1B68101C191CFFF77CFC54
:10364000021CFB69DB68D218FB695A6018E02D4B3D
:103650001A68FB699B68101C191CFFF76DFC031CA2
:10366000FB60FB69DA68FB689A4206D9FB69DA6895
:10367000FB68D21AFB695A6002E0FB6900225A60BB
:10368000FB6900229A60FB690022DA60FB69012273
:103690001A75FB69012252421A623B6A181CFFF735
:1036A00067FC00E0C0467B68013300D066E77B69B9
:1036B0001A787B695B789A4200D05FE73B1C27331E
:1036C0001B785A1E9341DBB23A1C2732391C273132
:1036D000097801391170002B00D046E7054B1A68B4
:1036E000BB69D31A5A1E9341DBB2181CBD460AB0FF
:1036F00080BDC04610310020083100200C31002070
:103700000431002014310020FEFF7F0090B589B005
:1037100000AF7860284B1B68013347D0274B1968EE
:10372000254B1A68131CDB009B189B00CB185B68A9
:10373000FB61FFF7F5FB031CBB61214B1B687B6141
:10374000BA697B69101C191CFFF7F6FB031C0333D5
:103750003B617B68013301D1FFF7A8FBFA693B6944
:10376000934200D2131C7A69D3187B617B691B02D8
:103770001B0A7B617B69181CFFF7ECFBFFF7D0FB92
:10378000031CFB60FA68BB69101C191CFFF7D4FB13
:10379000031CDC1C7A69BB69101C191CFFF7CCFBED
:1037A000031C9C4204D9FFF7FDFC01E0FFF79CFBE2
:1037B000BD4609B090BDC046103100200431002044
:1037C0001431002090B587B000AF01235B427B60CD
:1037D0001D4B1B683B611D4B1B68FB603C1C0B3485
:1037E0003B1C181CFFF786FD031C23703C1C173480
:1037F000FFF7BEFD031C23703B1C0B331B78002B13
:103800000BD039683A693B1D081C111C1A1CFFF7C4
:1038100047FE3B1C173301221A707B68181CFFF708
:1038200097FE031C002B03D03B1C173301221A7098
:103830003B1C17331B78002B03D0FB68181CFFF7C9
:1038400065FFBD4607B090BD143100201031002047
:1038500080B582B000AF786039603B68DAB27B68CF
:103860005A70BD4602B080BD80B584B000AF7860AC
:1038700039607B685B780133FB607B689B781A1C3E
:10388000FB689A4201D10023FB607B681B781A1CFD
:10389000FB689A4201D100230EE03B68FA681A6087
:1038A0007B6859687B685B781A1C131C5B009B184B
:1038B000DB00CB18BB60BB68181CBD4604B080BDE4
:1038C00080B586B000AFF860B9607A603B601B4B92
:1038D0001A68FB68DB00D2183B1C1033101C191C43
:1038E000FFF7C2FF031C7B617B69002B01D104231E
:1038F00020E07B6901221A707B69BA685A60FFF781
:103900000FFB021C7B699A607B697A68DA607B69CD
:103910003A681A617B693A6A5A61084B1A68FB680F
:10392000DB00D2183B69101C191CFFF791FFFFF751
:1039300041FC0023181CBD4606B080BD0C310020A0
:1039400080B584B000AF78603960144B1A687B682A
:10395000DB00D2183B1C0833101C191CFFF784FF36
:10396000031CFB60FB68002B01D1042312E0FB6801
:1039700002221A70FB683A685A60084B1A687B6822
:10398000DB00D218BB68101C191CFFF761FFFFF7A2
:1039900011FC0023181CBD4604B080BD0C31002072
:1039A00080B500AF104AA0235B000021D1500E4A21
:1039B000A2235B000021D1500B4AA4235B0000210D
:1039C000D150094AA6235B000021D150064A80232A
:1039D0005B000021D150044A82235B000021D150BA
:1039E000FFF720FCBD4680BD0010014080B500AF50
:1039F000FFF7E8FEBD4680BD80B586B000AFF86039
:103A00007B603B1C0B3319703B1C0A331A707B68BC
:103A1000181CFFF711FA031C01225340DBB2002BE4
:103A200001D0072389E07B68002B01D1072384E0C4
:103A3000FFF75AFA434B3A6A1A60434B3A1C0B326F
:103A400012781A70414B7A681A6000237B6116E085
:103A50003E4B19687A69131CDB009B189B00CB183E
:103A600000221A70394B19687A69131CDB009B1805
:103A70009B00CB1800221A757B6901337B613B1CCC
:103A80000B331A787B699A42E2DC3B1C0B331A78C1
:103A9000131CDB009B189B007A68D3187B602C4BAF
:103AA00003221A702B4B7A681A607B6818337B608C
:103AB00000237B6120E0274B1A687B69DB00D31869
:103AC0003B613B6900221A703B6900225A703B69D6
:103AD0003A1C0A3212789A703B697A685A603B1C29
:103AE0000A331A78131C5B009B18DB007A68D31822
:103AF0007B607B6901337B617B69022BDBDD164BCD
:103B0000012252421A60154B00221A70144B0022F7
:103B10001A701420FFF7ACF814200321FFF7C2F845
:103B20001420FFF75DF8FB68181CFFF7ADF9FFF7ED
:103B3000F7F9021C0B4B1A600023181CBD4606B097
:103B400080BDC04624310020003100200431002017
:103B5000083100200C3100201031002020310020DD
:103B6000213100201431002080B586B000AFF8600C
:103B70007A603B1C0B330A1C1A70284B1B68002B05
:103B800001D1082346E07B68002B01D1072341E0E7
:103B9000FB68002B01D107233CE000237B6132E06E
:103BA0001E4B19687A69131CDB009B189B00CB180D
:103BB0001B78002B24D1194B19687A69131CDB0080
:103BC0009B189B00CB1801221A70144B19687A6954
:103BD000131CDB009B189B00CB183A1C0B3212788D
:103BE0005A700E4B19687A69131CDB009B189B00F6
:103BF000CB187A689A617A69FB681A60002309E039
:103C00007B6901337B61064B1B781A1C7B699A42E6
:103C1000C6DC0423181CBD4606B080BD043100205C
:103C20000031002080B582B000AFFFF7E7F8031C39
:103C3000012B02D0032B03D005E000237B6005E0BD
:103C400001237B6002E002237B60C0467B68181C76
:103C5000BD4602B080BDC04690B589B002AFF860E5
:103C6000B9607A601D4B1B68002B01D1082330E03E
:103C70001B4B1B781A1CFB689A4202D9BB68042BA9
:103C800001D8072325E0154B1968FA68131CDB00DF
:103C90009B189B00CB181B78012B01D0082318E040
:103CA0000E4B1968FA68131CDB009B189B00CB189D
:103CB0005B78012B01D1BB6800E000237B61FFF73B
:103CC000B1FFF968BA687B697C680094FFF7F8FD7A
:103CD000031C181CBD4607B090BDC046043100202F
:103CE0000031002080B582B000AF7860134B1B68B4
:103CF000002B01D108231DE0114B1B781A1C7B6897
:103D00009A4201D8072315E00C4B19687A68131CF6
:103D1000DB009B189B00CB181B78012B01D00823DC
:103D200008E0FFF77FFF021C7B68101C191CFFF7DF
:103D300007FE031C181CBD4602B080BD04310020E4
:103D40000031002080B584B000AFF860B960BB1DC1
:103D50001A80BB68002B01D10E231CE0BB1D1B8801
:103D6000002B06D0BB1D1B88013BBA1D12881340D7
:103D700001D009230FE0FB68BA681A60BB1D1B88DD
:103D8000013B9AB2FB689A80FB6800229A60FB684C
:103D90000022DA600023181CBD4604B080BDC04676
:103DA00080B582B000AF78600A1CFB1C1A707B687B
:103DB000DA687B689B68D21A7B689B889A4211D824
:103DC0007B681A687B68DB68796889880B40D31840
:103DD000FA1C12781A707B68DB685A1C7B68DA6000
:103DE000002300E00423181CBD4602B080BDC0467D
:103DF00080B582B000AF786039607B68DA687B6834
:103E00009B689A4211D07B681A687B689B687968C6
:103E100089880B40D3181A783B681A707B689B68B6
:103E20005A1C7B689A60002300E00523181CBD46DD
:103E300002B080BD80B582B000AF021CFB1D1A70BD
:103E4000064BFA1D1278111C1F220A400121081C82
:103E50009040021C1A60BD4602B080BD00E100E047
:103E600080B582B000AF021CFB1D1A70084AFB1D12
:103E70001B78191C1F230B400121081C9840031CB0
:103E8000191CC0235B00D150BD4602B080BDC046A6
:103E900000E100E0B0B582B000AF021C3960FB1D4C
:103EA0001A70FB1D1B787F2B32D93049FB1D1B7804
:103EB0001A1C0F231340083B98082C4AFB1D1B7843
:103EC0001C1C0F232340083B9B0806339B00D31880
:103ED0005B68FA1D1278141C03222240D200FF24D2
:103EE000251C95402A1CD2431A403B689C01FF23A5
:103EF0001C40FB1D1B781D1C03232B40DB00251CD5
:103F00009D402B1C1A43831D9B00CB185A6029E04F
:103F1000174BFA1D127852B292081549F81D007815
:103F200040B28008C03080004158F81D0078041C61
:103F300003202040C000FF24251C8540281CC043CE
:103F4000084039688C01FF210C40F91D09780D1CCF
:103F500003212940C900251C8D40291C0143C03282
:103F60009200D150BD4602B0B0BDC04600ED00E0A9
:103F700000E100E080B582B000AF7860A023DB05EF
:103F80007A68C132FF3292000121D150BD4602B0A1
:103F900080BDC04680B582B000AF78600A1CFB1CB3
:103FA0001A70A023DB05FA1C12789200111C7A68A3
:103FB000C132FF329200D150BD4602B080BDC04632
:103FC00080B582B000AF7860FB1C1970BB1C1A7002
:103FD000A023DB05BA1C12781204111CFA1C1278FB
:103FE000920011437A68C132FF329200D150BD462F
:103FF00002B080BD80B500AF074B00221A70074B9E
:104000000122DA60054B01225A60044AA023DB003A
:104010000021D150BD4680BD543100200020004019
:1040200080B582B000AF084B0122DA60074B012255
:104030001A703B1C03221A70054B1B683A1C101C9B
:104040009847BD4602B080BD00200040543100209A
:104050005031002080B582B000AF154B1B78DBB229
:10406000022B02D0134B01229A60134AFB1D101C35
:10407000191CFFF7BDFE031C002B02D0FFF7D0FF79
:1040800012E00C4AC2239B008021D150094AFB1D3B
:104090001B78191C094BD150054B02221A70054A96
:1040A000C1239B008021D150BD4602B080BDC046D7
:1040B0005431002000200040383100201C05000051
:1040C00080B500AF064BDA68054B9B689A4202D078
:1040D000FFF7C0FF01E0FFF7A3FFBD4680BDC0466C
:1040E0003831002080B500AF084B1B78DBB2012BC4
:1040F00002D0022B03D006E0FFF77CFF04E0034B65
:1041000003221A7000E0C046BD4680BD5431002035
:1041100080B500AF114B1B78DBB2002B02D0032B14
:1041200015D018E00E4AA023DB000421D1500C4B1F
:1041300001221A600B4BDA680A4B9B689A4202D044
:10414000FFF788FF08E0054B01221A7004E0034BDB
:1041500002221A7000E0C046BD4680BD54310020E6
:10416000002000403831002080B500AF094B1B789B
:10417000DBB2012B0ADB022B04DD032B05D1FFF799
:1041800039FF04E0FFF79CFF01E0C046C046BD4692
:1041900080BDC0465431002080B500AF044B1B7871
:1041A000DBB2012B01D1FFF755FFBD4680BDC046F4
:1041B0005431002080B500AFFFF71CFFBD4680BD25
:1041C00080B582B000AF021CFB1D1A70FB1D1B786E
:1041D000042B13D89A000B4BD3181B689F46FFF78C
:1041E00081FF0CE0FFF794FF09E0FFF7BDFF06E059
:1041F000FFF7D2FF03E0FFF7DDFF00E0C046BD465A
:1042000002B080BDD06F020080B584B000AF78608E
:1042100039603B687A681A40164B1B68134015D00A
:10422000154B1A783B1C0833101C191C01F092F82E
:10423000031CFB60FB68002B19D1BA687B68134034
:104240007B60BB68DA433B6813403B60094B1B68EB
:104250003A68134003D00120FFF7B2FF07E0054B97
:104260001B687A68134002D00020FFF7A9FFBD4603
:1042700004B080BD4C3100204831002080B588B0AA
:1042800000AF354A84235B00D358002B33D0324A29
:1042900084235B000021D1502F4AA323DB00D35895
:1042A000DBB22E4A101C191CFFF77AFD031CFB61C0
:1042B000FB69002B0ED03B1C103301221A703B1CF3
:1042C0001033FA695A60264B1B683A1C1032101CD6
:1042D000984710E0214BDA68204B9B68D31A012BDA
:1042E00009D13B1C083300221A701D4B1B683A1C75
:1042F0000832101C9847184A8E235B00D358002BB5
:1043000007D0154A8E235B000021D1500320FFF710
:1043100057FF114A92235B00D358002B19D00E4A45
:1043200092235B000021D1500B4A9023DB00D3582D
:10433000BB61094A9023DB00B969D1503B1C0222C2
:104340001A703B1CBA695A60054B1B683A1C101C5A
:104350009847BD4608B080BD0020004028310020AD
:104360005031002080B500AF164AA023DB000421A5
:10437000D150144A84235B000021D150114A8E236E
:104380005B000021D1500F4A0E490F4BCB58012141
:10439000181C8843011C0C4BD1500A4AA123DB0096
:1043A00001214942D150074AA223DB0001214942A1
:1043B000D150044B01229A60024B01221A60BD4683
:1043C00080BDC046002000406C05000080B582B072
:1043D00000AF7860164AA023DB000421D150144AB4
:1043E00084235B000021D150114A8E235B00002101
:1043F000D1500F4A0E490F4BCB58012119430D4B99
:10440000D1500B4A7B68DB78191CA223DB00D1500A
:10441000074A7B689B78191CA123DB00D150044B11
:1044200001229A60024B01221A60BD4602B080BD93
:10443000002000406C05000080B588B000AFF86037
:10444000B9607A601A1CFB1C1A700023FB61002300
:10445000BB619E4B00221A709D4B7A681A60BB6844
:10446000002B01D107232DE1BB681A68BB685B688C
:104470009BB29849081C111C1A1CFFF763FC031C13
:104480007B617B69002B01D07B691BE1BB689A686B
:10449000BB68DB689BB29049081C111C1A1CFFF713
:1044A00051FC031C7B617B69002B01D07B6909E116
:1044B000FB685B78181CFFF75DFDFB681B78181C18
:1044C0000021FFF767FD854AFB685B78191C844B68
:1044D000D150824AFB681B78191C824BD1507F4A0D
:1044E000FB689968804BD150FB685B79002B04D046
:1044F0007A4A7E4B0E21D15003E0784A7B4B002153
:10450000D150FB681B79022B00D097E0FB689B78A9
:10451000181CFFF72FFDA023DA05FB689B7801210B
:10452000081C9840031C191C714BD1506B4AA223E4
:10453000DB0001214942D150684AFB689B78191C75
:10454000A123DB00D150654A6449684BCB58012157
:104550001943664BD150FB68DB780122111C99404E
:104560000B1C1A1C634B1A60FB68DB78181C0021BB
:104570000322FFF725FDFB68DB780122101C984021
:10458000031CFB61FB68DB780122111C99400B1CAA
:10459000BB61BB6A1B88002B17D15748F969BA6900
:1045A000564B00F0C5FD031C7B617B69002B01D0DD
:1045B0007B6987E0504B1B781B029BB2FF221343A1
:1045C0009BB29AB2BB6A1A800CE0BB6A1B88FE2BB6
:1045D00001D8072376E0BB6A1B881B0A9BB2DAB2BC
:1045E000454B1A70444B1A783B1C1033101C191C95
:1045F00000F0B0FE031C7B617B69002B01D07B695E
:1046000060E03D4B1B78181C00F0F8FD031C7B613B
:104610007B69002B01D07B6954E0FB68DB780122C9
:10462000101C9840031C3A69134003D10120FFF786
:10463000C7FD2EE00020FFF7C3FD2AE0FB681B79D1
:10464000012B14D1BB6A1B88002B08D12C4B1B7883
:10465000191CBA6A11800133DAB2294B1A70FB684F
:10466000181CFFF7B3FE194B01221A7011E0BB6A48
:104670001B88002B08D1224B1B78191CBA6A1180A9
:104680000133DAB21E4B1A70FFF76CFE0F4B01229A
:104690001A70124AC2239B0001214942D1500F4A8D
:1046A000C1239B00A1218900D1500220FFF7D8FB34
:1046B000FB1C1B780220191CFFF7ECFB0220FFF704
:1046C000B9FB0023181CBD4608B080BD5431002042
:1046D00050310020283100203831002000200040D7
:1046E0000C05000014050000240500006C05000006
:1046F000040500004C31002048310020094202002E
:104700000C24002080B582B000AF7860054A7B6839
:10471000101C191CFFF76CFB031C181CBD4602B0D3
:1047200080BDC0462831002080B584B000AF021C97
:10473000FB1D1A70084AFB1D1B78101C191CFFF783
:104740002FFB031CFB600220FFF73AFDFB68181CDF
:10475000BD4604B080BDC0463831002080B586B06B
:1047600000AFF860B9607A607B68002B02D07B688C
:104770001B8800E02D4B3A1C1232138000237B6112
:1047800049E03B1C12331B881B0A9BB2DBB21A1C8C
:104790003B1C12331B881B029BB213439AB23B1C77
:1047A00012331A80FA687B69D3181B78191C3B1CDA
:1047B00012333A1C123212884A401A803B1C1233C0
:1047C0001B88DBB21B09DBB2191C3B1C12333A1CE1
:1047D000123212884A401A803B1C12331B881B037A
:1047E0009AB23B1C12331B8853409AB23B1C1233C3
:1047F0001A803B1C12331A88FF2313405B019AB2C4
:104800003B1C12331B8853409AB23B1C12331A8054
:104810007B6901337B617A69BB689A42B1D33B1CE7
:1048200012331B88181CBD4606B080BDFFFF000078
:1048300080B500AF0C4B1B785A1E9341DBB20122AE
:104840005340DBB21A1C01231340DAB2064B1A7034
:10485000064B1B68002B05D0044B1B68024A1278DC
:10486000101C9847BD4680BD5531002058310020AE
:1048700080B582B000AF7860C046C046C046C04632
:10488000C046C046C046C046C046C046C046C046F8
:10489000C046C0467B68013B7B60002BECD1BD4627
:1048A00002B080BD80B582B000AF786006E07B6862
:1048B000013B7B60044B181CFFF7DAFF7B68002B81
:1048C000F5D1BD4602B080BDE703000080B582B0DF
:1048D00000AF021CFB1D1A70FB1D1B787F2B16D925
:1048E000164AFB1D1B78191C0F230B40083B9B0825
:1048F00006339B00D3185A68FB1D1B78191C032331
:104900000B40DB00DA40FF2313409B0911E00C4B06
:10491000FA1D127852B29208C0329200D258FB1D92
:104920001B78191C03230B40DB00DA40FF231340E4
:104930009B09181CBD4602B080BDC04600ED00E0DA
:1049400000E100E02BDF7047181CC0462CDF7047E9
:10495000181CC04680B582B000AF0C4B5B68DB050D
:10496000DB0D7B607B68002B0BD07B68103B3B60D2
:104970003B68DBB25BB2181CFFF7A8FF031CDBB27D
:1049800000E00423181CBD4602B080BD00ED00E02D
:1049900080B582B000AF78607A68032313405A4232
:1049A0005341DBB2181CBD4602B080BD80B582B059
:1049B00000AF021CFB1D1A70FB1D1B789AB2074B3F
:1049C0001B889A4204D2FB1D1B780133DBB200E046
:1049D0000023181CBD4602B080BDC04668310020CF
:1049E00080B584B000AF3A60BB1D021C1A803B1D2D
:1049F0000A1C1A803B1D1B8801339AB23B1C0E33E4
:104A0000D2001A803B68181CFFF7C2FF031C01226A
:104A10005340DBB2002B01D0072318E00E4B3A685D
:104A20001A603B1C0E331B883A68D2180B4B1A6075
:104A30000B4B00221A700B4B00221A700A4BBA1D46
:104A400012881A80094B3A1D12881A800023181CFC
:104A5000BD4604B080BDC0465C31002060310020FE
:104A6000653100206431002066310020683100206B
:104A700080B58CB000AFF8607A603B1C0A330A1C2A
:104A80001A80594B1B883A1C0A3212889A4200D964
:104A9000A3E03B1C2A33012252421A803B1C1333F1
:104AA00000221A70FFF756FF031C7B627B6A012B02
:104AB00017D03B1C1333181CFFF744FF031C3B6249
:104AC0003B6A022B01D172B60BE03B6AFB61FB69CA
:104AD000002B06D0FA69454B101C59211A1CFBF714
:104AE00027FB434B1B78DBB2181CFFF75FFF031C4F
:104AF0001A1C404B1B78DBB29A420FD03C4B1B7800
:104B0000DAB23B1C2A331A80394B1B78DBB2181CF3
:104B1000FFF74CFF031C1A1C354B1A707B6A012BE4
:104B200017D062B63B1C13331B78181CFFF70EFF1F
:104B3000031CBB61BB69022B0BD0BB697B617B692A
:104B4000002B06D07A69294B101C61211A1CFBF737
:104B5000EFFA3B1C2A331A88274B9A423AD0274B4C
:104B60001A683B1C2A331B88DB00D3187A681A604A
:104B7000FB68002B22D03B1C0A331B88002B1DD066
:104B80001F4B1A683B1C2A331B88174909884B4363
:104B9000D1183B1C0A331B88FA68081C111C1A1C0C
:104BA000FDF7FEFE154B1A683B1C2A331B88DB0001
:104BB000D3183A1C0A3212889A8008E00F4B1A6800
:104BC0003B1C2A331B88DB00D31800229A80002369
:104BD000FB6204E00423FB6201E00923FB62FB6A41
:104BE000181CBD460CB080BD66310020E46F020089
:104BF0006531002064310020FFFF00005C3100209F
:104C00006031002080B586B000AFF860B9607A608E
:104C100005237B611E4B1B78DAB21E4B1B78DBB27F
:104C20009A4230D01B4B1B78DAB23B1C12331A80ED
:104C3000184B1B78DBB2181CFFF7B8FE031C1A1CBC
:104C4000144B1A70144B1A683B1C12331B881349FF
:104C500009884B43D218FB681A60114B1A683B1C39
:104C600012331B88DB00D3189A88BB681A800C4B60
:104C70001A683B1C12331B88DB00D3181A687B6848
:104C80001A6000237B617B69181CBD4606B080BD9D
:104C90006531002064310020603100206631002041
:104CA0005C31002080B584B000AF07E07B68F96814
:104CB0003A1C0A321288081C111C9847391C0C3106
:104CC0003A1C0A323B1D081C111C1A1CFFF79AFFE4
:104CD000031C002BEAD0BD4604B080BD80B582B075
:104CE00000AF021CFB1D1A70064BFA1D1278111C36
:104CF0001F220A400121081C9040021C1A60BD4678
:104D000002B080BD00E100E080B582B000AF021CBF
:104D1000FB1D1A70084AFB1D1B78191C1F230B4032
:104D20000121081C9840031C191CC0235B00D150B2
:104D3000BD4602B080BDC04600E100E0B0B582B023
:104D400000AF021C3960FB1D1A70FB1D1B787F2B06
:104D500032D93049FB1D1B781A1C0F231340083B26
:104D600098082C4AFB1D1B781C1C0F232340083B72
:104D70009B0806339B00D3185B68FA1D1278141C3D
:104D800003222240D200FF24251C95402A1CD24336
:104D90001A403B689C01FF231C40FB1D1B781D1C17
:104DA00003232B40DB00251C9D402B1C1A43831D35
:104DB0009B00CB185A6029E0174BFA1D127852B2AB
:104DC00092081549F81D007840B28008C030800074
:104DD0004158F81D0078041C03202040C000FF2427
:104DE000251C8540281CC043084039688C01FF21E0
:104DF0000C40F91D09780D1C03212940C900251C10
:104E00008D40291C0143C0329200D150BD4602B0F2
:104E1000B0BDC04600ED00E000E100E080B582B02A
:104E200000AF78607A68032313405A425341DBB2E3
:104E3000181CBD4602B080BD80B586B000AF78605A
:104E4000396000237B6145E07B690122111C994098
:104E50000B1CFB603B68FA68134038D07B68DB684A
:104E6000FA68134009D180239B023B617B68DA68B2
:104E7000FB681A437B68DA6009E0C0239B023B6150
:104E80007B68DB68FA68D2431A407B68DA60A0234B
:104E9000DB05A022D2057969C131FF31890089582B
:104EA0000F4A11407A69C132FF329200D150A023DB
:104EB000DB05A022D2057969C131FF31890089580B
:104EC0003A6911437A69C132FF329200D1507B694D
:104ED00001337B617B691F2BB6D9BD4606B080BD0F
:104EE000FFFFFCFF80B588B000AFA023DA05A22346
:104EF000DB00D358BB613E4ABE235B000021D1508A
:104F00003B1C1F3300221A7068E03A4B19683B1CA7
:104F10001F331A78131C9B009B189B00CB183B6116
:104F20003B1C1F331B780122111C99400B1C1A1CBF
:104F3000314B1B6813404AD03B69DB68DA43BB69DD
:104F40005A403B691B6813407B613A697B69101CBE
:104F5000191CFFF771FFA023DA05A223DB00D2584A
:104F6000BB695340FB60FB68002B16D0BA69FB6835
:104F70001343BB613B69DB68DA43BB695A403B6959
:104F80001B681340BB603A69BB68101C191CFFF713
:104F900053FF7A69BB6813437B61BB69DA433B69A2
:104FA0009B6813407A6913407B603B695B68BA6910
:104FB00013407A6913403B603A687B68134306D01C
:104FC0003B691B6939687A68081C111C98473B1CAF
:104FD0001F333A1C1F32127801321A70074B1B78AC
:104FE0003A1C1F3212789A428FD3BD4608B080BD5A
:104FF00000600040743100206C31002071310020CD
:1050000080B584B000AF021CFB1D1A700023FB604A
:1050100031E01C4B1968FB1D1A78131C9B009B1870
:105020009B00CB181B68FA680121081C9040021CE9
:1050300013401DD0A023DB05A022D205F968C131A1
:10504000FF3189008958104A1140FA68C132FF3295
:105050009200D150A023DB05A022D205F968C1310E
:10506000FF3189008958FA68C132FF329200D1506D
:10507000FB680133FB60FB681F2BCAD9BD4604B037
:1050800080BDC04674310020FFFFFCFF80B582B0B8
:1050900000AF021C3960FB1D1A703B68002B01D168
:1050A000072337E03B68181CFFF7B8FE031C0122FA
:1050B0005340DBB2002B01D007232BE0174B3A689B
:1050C0001A60174BFA1D12781A70164B00221A70CC
:1050D000154B00221A60114B1968114B1B781A1CD2
:1050E000131C9B009B189B00081C00211A1CFDF739
:1050F00081FC0E4AC2239B0001214942D150062067
:10510000FFF702FE06200121FFF718FE0620FFF739
:10511000E5FD0023181CBD4602B080BD743100209F
:1051200070310020713100206C310020006000409F
:1051300080B584B000AFF860B9607A603B602C4BFA
:105140001B68002B01D108234DE03B68002B01D1E7
:10515000072348E0274B1A78274B1B789A4201D344
:10516000042340E0224B1968224B1B781A1C131CA5
:105170009B009B189B00CB18B9687A680A431A6099
:105180001B4B19681B4B1B781A1C131C9B009B188C
:105190009B00CB18BA685A60154B1968154B1B78E1
:1051A0001A1C131C9B009B189B00CB187A689A60F2
:1051B0000F4B19680F4B1B781A1C131C9B009B1874
:1051C0009B00CB183A681A610A4B1B78FA68191CC5
:1051D00011700133DAB2074B1A70FB681B78181C88
:1051E000FFF70EFF0023181CBD4604B080BDC0466B
:1051F00074310020713100207031002080B586B0FC
:1052000000AF021CFB1D1A704D4B1B68002B01D117
:10521000082391E04B4B1B78FA1D12789A4201D378
:10522000072389E0484ABE235B000021D150A02318
:10523000DA05A223DB00D358FB60444B1B68002B2C
:1052400005D1414AC1239B0080210906D150FB1D95
:105250001B780122111C99400B1C1A1C3B4B1B682C
:105260001A433A4B1A60364B1968FB1D1A78131C07
:105270009B009B189B00CB180022DA6000237B6107
:1052800056E07B690122111C99400B1CBB602C4B22
:105290001968FB1D1A78131C9B009B189B00CB18E8
:1052A0001B68BA68134040D0FB68BA68134003D04B
:1052B000C0239B023B6118E080239B023B61204B93
:1052C0001968FB1D1A78131C9B009B189B00CA18B9
:1052D0001B4B1868FB1D19780B1C9B005B189B006F
:1052E000C318D968BB680B43D360A023DB05A02299
:1052F000D2057969C131FF3189008958144A1140BA
:105300007A69C132FF329200D150A023DB05A0227E
:10531000D2057969C131FF31890089583A69114351
:105320007A69C132FF329200D1507B6901337B61CF
:105330007B691F2BA5D90023181CBD4606B080BD74
:105340007431002071310020006000406C31002079
:10535000FFFFFCFF80B584B000AF021C3960FB1D6D
:105360001A70134B1B68002B01D108231CE0114B52
:105370001B78FA1D12789A4201D3072314E00C4BD4
:105380001968FB1D1A78131C9B009B189B00CB18F7
:10539000FB60A023DA05A223DB00D258FB681B6860
:1053A0001A403B681A600023181CBD4604B080BD3B
:1053B000743100207131002023DF7047181CC04673
:1053C0004EDF7047181CC04610DF7047181CC046DF
:1053D00080B582B000AF78607A68032313405A42E8
:1053E0005341DBB2181CBD4602B080BD60DF704780
:1053F000181CC046C1DF7047181CC04680B584B079
:1054000000AFF8607A603B1C0A330A1C1A803B1C10
:105410000A331A887B68101C191CFAF75BFFBD461B
:1054200004B080BD80B584B000AF5E4B1B78DBB2AA
:1054300001225340DBB2002B00D0AEE05A4B1A6879
:105440003B1C0F3351424A411A70584B1A683B1C9F
:105450000E3351424A411A70554B1A683B1C0D33AA
:1054600051424A411A7000E0C0463B1C0F331B7882
:1054700001225340DBB2002B1DD03B1D181CFFF74F
:105480009FFF031CBB60BB68052B04D13B1C0F3383
:1054900001221A700FE0BB68002B07D0BA68454B99
:1054A000101C69211A1CFAF743FE04E03E4B1B68EE
:1054B0007A68101C98473B1C0E331B78012253401E
:1054C000DBB2002B25D03C4B1A88BB1C1A803B4B0F
:1054D0001A68BB1C101C191CFFF788FF031CBB605B
:1054E000BB68052B04D13B1C0E3301221A7010E05F
:1054F000BB68002B07D0BA682E4B101C80211A1CE9
:10550000FAF716FE05E0294B1A682C4B1B68181C8D
:1055100090473B1C0D331B7801225340DBB2002B1C
:1055200028D0264B1B68191C244B1B685A1C234B84
:105530001B680233081C111C1A1CFFF75BFF031CBD
:10554000BB60BB68052B04D13B1C0D3301221A70D4
:1055500010E0BB68002B07D0BA68164B101C9821CE
:105560001A1CFAF7E5FD05E0114B1A68134B1B688E
:10557000181C90473B1C0F331B78002B00D173E79E
:105580003B1C0E331B78002B00D16DE73B1C0D3309
:105590001B78002B00D167E700E0C046BD4604B091
:1055A00080BDC046823100208C3100208431002033
:1055B000883100201C700200803100207C310020E6
:1055C00080B586B000AFF860B9603B60BB1D1A8043
:1055D000BB68002B01D1072329E0BB68181CFFF72B
:1055E000F7FE031C01225340DBB2002B01D007233E
:1055F0001DE0114BBA681A60104BBA1D12881A8050
:105600000F4B3A681A60FA680E4B101C191CFFF712
:10561000DBFE031C7B617B69002B01D07B6906E00C
:10562000094B01221A701620FFF7C6FE031C181C36
:10563000BD4606B080BDC0467C31002080310020D0
:1056400078310020FD5302008231002080B582B005
:1056500000AF78607B68002B01D10E2303E0044B80
:105660007A681A600023181CBD4602B080BDC0468F
:105670008831002080B582B000AF0E4B1B68002B34
:1056800013D00C4B1B689847031C7B607B683B6006
:105690003B68002B0BD0396899235A00064B081C35
:1056A000111C1A1CFAF744FD01E0FFF7BBFEBD46D2
:1056B00002B080BD783100201C70020090B585B02A
:1056C00000AF304B1B78DBB2022B07D0032B2BD063
:1056D000012B53D12C4B01225A6250E03B1C00227B
:1056E0001A703B1C00225A603B1C00229A60274B18
:1056F0001A683B1C0F33511E8A411A703B1C0F3332
:105700001B7801225340DBB2002B05D0204B002038
:10571000BA211A1CFAF70CFD1C4B1C683B1C1868BC
:1057200059689A68A0472AE03B1C01221A70164A61
:10573000184BD2583B1C5A60134A174BD2583B1C8B
:105740009A60124B1A683B1C0E33511E8A411A7024
:105750003B1C0E331B7801225340DBB2002B05D0DB
:105760000B4B0020C3211A1CFAF7E2FC074B1C6804
:105770003B1C186859689A68A04700E0C046BD46BF
:1057800005B090BDA031002000400040A4310020B1
:10579000587002003C0500004C05000080B582B046
:1057A00000AF021CFB1D1A70044BFA1D12781A7010
:1057B000FFF784FFBD4602B080BDC046A031002087
:1057C00080B500AF234A94235B00D358002B29D027
:1057D000204A94235B000021D1501F4B1B78DBB281
:1057E000012B1ED11B4A1D4B1B68191C1C4BD15091
:1057F000184A1C4B1B68191C1B4BD150154A1B4BDC
:105800001968A723DB00D150124A194B1968A92344
:10581000DB00D1500F4B01229A620220FFF7BEFF3E
:1058200000E0C0460B4A82235B00D358002B0ED009
:10583000084A82235B000021D150074B1B78DBB262
:10584000022B03D10320FFF7A9FF00E0C046BD46AD
:1058500080BDC04600400040A031002090310020B3
:105860004405000094310020340500009C310020E4
:105870009831002080B588B002AF021C3960FB1D52
:105880001A70FB1D1B78802252421343DAB23B1C74
:105890000C331A703B1C0C3300225A700F4A3B1C0D
:1058A0000C3339680091101C01211A1C0123FCF7EC
:1058B0008FFE031C7B617B69013B5A1E9341DBB267
:1058C0003B613B69002B06D03A69054B101C212136
:1058D0001A1CFAF72DFCBD4606B080BDA831002089
:1058E0008870020080B588B002AF0A1CFB1D011C45
:1058F0001970BB1D1A70FB1D1A787F231340DAB292
:105900003B1C0C331A703B1C0C33BA1D12785A70B6
:105910000F4A3B1C0C3300210091101C02211A1C61
:105920000023FCF755FE031C7B617B69023B5A1E7A
:105930009341DBB23B613B69002B06D03A69054BD2
:10594000101C2A211A1CFAF7F3FBBD4606B080BDD5
:10595000A83100208870020080B582B000AF021C20
:10596000FB1D1A70FB1D1B7880225201111CD940AF
:105970000B1C181CBD4602B080BDC04680B582B06D
:1059800000AF78607B687A6801327A603C20191C2D
:10599000FFF770FF7B687A6801327A603B20191C40
:1059A000FFF768FF7B687A6801327A603E20191C35
:1059B000FFF760FF7B687A6801327A603D20191C2E
:1059C000FFF758FF7B687A6801327A604020191C23
:1059D000FFF750FF7B687A6801327A603F20191C1C
:1059E000FFF748FF0623181CBD4602B080BDC04625
:1059F00080B582B000AF021CFB1D1A70FB1D1B7826
:105A0000DB00DBB21C20191CFFF76CFFBD4602B0A7
:105A100080BDC04680B582B000AFFB1D3A20191C86
:105A2000FFF728FFFB1D1B78181CBD4602B080BD88
:105A300080B582B000AF021CBB1D1A80BB1D1B8845
:105A40009B089BB2DBB21F20191CFFF74BFFBD4622
:105A500002B080BD80B584B000AF0A1CFB1D011CE4
:105A600019703B1D1A8038200021FFF73BFF2320CF
:105A70000021FFF737FF6A200021FFF733FF6B207B
:105A80000021FFF72FFF6C200721FFF72BFF3B1CA6
:105A90000B331D20191CFFF7EDFE3B1C0B331B784D
:105AA00008221343DBB21D20191CFFF71BFF6920DE
:105AB000C021FFF717FF3B1D1B88181CFFF7B8FF1D
:105AC000FB1D1B781E20191CFFF70CFF6B202821E3
:105AD000FFF708FFFB1D1B78181CFFF73DFF021C9A
