:020000022000DC
:10000000F03F0020991B0200ED1B0200F9010200E5
:1000100000000000000000000000000000000000E0
:10002000000000000000000000000000EF1B0200C4
:100030000000000000000000F11B0200F31B0200A2
:10004000F51B0200F51B020089350200F51B0200BA
:100050007950020000000000C14A0200055D020064
:10006000F51B0200F51B020085600200F51B020073
:10007000F51B0200F51B0200F51B0200F51B020038
:10008000F51B0200252F0200F51B0200F51B0200E4
:10009000592F020071410200A94F0200F51B020016
:1000A000F51B0200F51B020000000000000000002C
:1000B0000000000000000000000000000000000040
:1000C0002ADF704739DF704710B5031C074A121A40
:1000D00090B22C240855000A2D240855081C2E30F7
:1000E00011040A0C191C01F071FB10BD0040002026
:1000F00010B582B001900091141C1E4801F01AF84E
:100100001D4801F017F8201C01F014F81B4C201CAE
:1001100001F010F81A4801F00DF86846042101F0CA
:100120001BF8201C01F006F8164801F003F801A89E
:10013000042101F011F8201C00F0FCFF124800F02F
:10014000F9FF124800F0F6FF201C00F0F3FF104802
:1001500004F09EFA00F0BCFF722807D10120FFF7DF
:10016000B1FF002804D1FFF7ABFF01E0FFF7A8FFC4
:1001700002B010BD048C0200108C02008C920200B0
:10018000188C0200208C0200288C0200308C0200A7
:100190008813000008B5031C0A1C0248191CFFF74D
:1001A000A7FF08BDEFBEADDE38B5051C8022D40523
:1001B0000E4BE05802210143E1500D4C59225342AD
:1001C000237042204142617053225342A370222087
:1001D0004142E1700748291C042201F0F7FA281D6A
:1001E000211CFFF771FF00BE38BDC0461C05000092
:1001F0000400002008000020EFF30880D4E7C04688
:1002000003880D4A108D984214D00B498A8D9A426A
:100210000CD00948018E99420AD0074A908EC11A23
:100220004B1E994148420323184304E0012002E099
:10023000022000E0002070472C2400200C4B188D79
:10024000002813D00A498A8D002A0BD0084B188E3B
:10025000002809D006498A8E531E9A415042032332
:10026000184304E0012002E0022000E00020704773
:100270002C240020002070470020704700B583B078
:100280000A1C01AB0421197000215970034BD96974
:100290000B680199984703B000BDC0462C2400208C
:1002A0000020704710B582B001AB18808BB2684651
:1002B0000180141C1A0A55D12079C2B2022A1AD020
:1002C00002D8012A5DD105E0C0B203282BD0042852
:1002D00057D13EE0247A2C48203002F033F9011C3B
:1002E000201C01F01DFE00284BD1274B186801216E
:1002F00005F042FF45E00834201CFFF781FF00288D
:100300003FDB214AFF210B1C03400A3398000021E8
:100310001152D269002A34D09368002B31D0201CAE
:10032000012198472DE0FFF789FF002829DB1649B6
:10033000FF2318400A308000A2684250C969002992
:100340001FD08B68002B1CD0201C0830022198473E
:1003500017E0201C0830E168FFF790FFE06800F02C
:1003600069FB0EE0042A0CD8511E0932930006489E
:100370001A5A002A05D00A3189004018211C02F0BF
:10038000F5F8002002B010BD2C24002010B501F0BB
:1003900075FE041C044800F0CDFE002C02DA034870
:1003A00000F0C8FE10BDC046C48C0200D48C020010
:1003B00070B582B0061C0D1E1FD001AB04221A704E
:1003C000002058700C2000F027FA041E15D0281CBD
:1003D00000F0F4FA04212171201C0830311C0422A1
:1003E00001F0F4F9E560064E35682B680198011CB0
:1003F000221C9847201C00F01DFB02B070BDC046B7
:100400002C2400200A4B1860D9610A4A1A620A4853
:1004100058620A49D9600A4A5A610A4898610A49E9
:10042000196104221A7109489860181D7047C04666
:100430002C240020B10302008D030200750202008B
:1004400079020200A5020200A1020200E48C02006F
:1004500010B5041E11D003780220092B0ED8A06815
:100460008047011C0120002908D122780A3293001C
:100470000348C1184C60002000E0012010BDC046B8
:100480006424002010B5041E0DD003780220092B2F
:100490000AD8E068804721780A318C00034A131992
:1004A0000021596000E0012010BDC04664240020F6
:1004B00000207047002070470020704710B582B0C0
:1004C00001AB188068460180141E6FD0101C00F02C
:1004D00075FA2179012966D1364800F02BFE364A9B
:1004E000D36A002B05D0586800F024FE334800F092
:1004F00021FE3148016B002905D0486800F01AFE42
:100500002E4800F017FE2C4A536B002B05D058687C
:1005100000F010FE294800F00DFE2748816B0029ED
:1005200005D0486800F006FE244800F003FE224A89
:10053000D36B002B05D0586800F0FCFD1F4800F07D
:10054000F9FD1D48016C002905D0486800F0F2FD56
:100550001A4800F0EFFD184A536C002B05D058687C
:1005600000F0E8FD154800F0E5FD1348816C002916
:1005700005D0486800F0DEFD104800F0DBFD0E4AB3
:10058000D36C002B05D0586800F0D4FD0B4800F068
:10059000D1FD0948016D002905D0486800F0CAFD69
:1005A000064800F0C7FD201C00F044FA002002B00D
:1005B00010BDC046E88C0200642400208C9202002A
:1005C00010B5041C8378092B0CD80A3398000C4A08
:1005D00011184B68002B05D061885B692068626840
:1005E000984706E00648826A002A02D0201C0821AB
:1005F00090476068002801D000F01CFA10BDC0468A
:100600006424002010B586B001AB188068460180D4
:10061000141E02D0101C00F0D1F904A801A90A8808
:1006200002806B4619884180446008210D4A04F01D
:10063000E7F8041C00F092F880B26A46D0810228E4
:100640000AD8094800F076FD68460E30012100F016
:1006500083FD064800F06EFD201C441EA04106B03C
:1006600010BDC046C1050200F88C02008C92020049
:100670002423084AD15C00290AD1131C906201206E
:10068000242298540449596004489860044A1A6026
:1006900000487047642400205104020085040200D1
:1006A000050602000748084B436108498161084A72
:1006B000C261084B036208490161002202730C30D9
:1006C0007047C04664240020B1040200B504020053
:1006D000B9040200BD040200048D020000280EDAF5
:1006E0000F220240083A930899000B4A8B18596868
:1006F00003221040C000C1400906880F0AE08208AA
:10070000C0329100054BC95803221040C000C140BF
:100710000906880F7047C04618ED00E000E100E0D0
:1007200008B5064B5868C105CA0D0420002A04D03C
:10073000103A50B2FFF7D2FFC0B208BD00ED00E0A2
:100740002BDF70472CDF70478378002B01D0013BF3
:100750008370704783780133837070472C4B99788E
:100760004A4251410A1C26201B5C002B00D14A1C26
:100770004A202749085C4342584112186E23CB5C3B
:1007800058424341D0189223CB5C5A425341C0187F
:10079000B623CB5C5A425341C018DA23CB5C5A4291
:1007A0005341C018FE23CB5C5A425341C0189122DA
:1007B0005300CB5C5A425341C018A3225300CB5C78
:1007C0005A425341C018B5225300CB5C5A425341A0
:1007D000C018C7225300CB5C5A425341C018D922DB
:1007E0005300CB5C5A425341C018EB225300CB5C00
:1007F0005A425341C018FD225300CB5C5A42534128
:10080000C018044BCB5C5A425341C0187047C046D5
:10081000B82400201E02000070B582B0051E202DF5
:1008200063D800226B46DA71FFF77AFF061E012EAD
:100830005DD068460730FFF783FF022801D172B60A
:1008400055E0002853D05F214F4AFFF751FC4EE09E
:100850004E4C243433E04D4C483430E04B4C6C3437
:100860002DE04A4C90342AE0484CB43427E0474C01
:10087000D83424E0454CFC3421E0444C2134FF348E
:100880001DE0424C4534FF3419E0404C6934FF34DC
:1008900015E03E4C8D34FF3411E03C4CB134FF3454
:1008A0000DE03A4CD534FF3409E0384CF934FF34CC
:1008B00005E0364887239900441800E0334C201C9B
:1008C000FFF748FF012E0CD062B66E46F079FFF7B5
:1008D00039FF022805D0002803D068212A4AFFF7F3
:1008E00007FC002C4DD025804BE0002449E0274830
:1008F00081780029E2D02624244A135D002BA7D05A
:100900004A20115C0029A6D06E24135D002BA5D0CF
:100910009220115C0029A4D0B624135D002BA3D033
:10092000DA20115C0029A2D0FE24135D002BA1D097
:1009300091204100545C002C9FD0A3235800115CEF
:1009400000299ED0B5246300D05C00289DD0C7212B
:100950004C00135D002B9CD0D9204100545C002C2E
:100960009BD0EB235800115C00299AD0FD24630032
:10097000D05C002899D00649525C002A99D0002406
:10098000A0E7201C02B070BD0C8D0200B82400202E
:100990001E02000070B5041E0DD001F081F8461C47
:1009A000301CFFF739FF051E06D00430211C321C15
:1009B00000F00CFF00E00025281C70BD10B582B0CF
:1009C000041E1DD000226B46DA71FFF7A9FE012834
:1009D00026D068460730FFF7B3FE022801D172B671
:1009E00013E0002811D08121104AFFF781FB0CE0B1
:1009F000002803D083210D4AFFF77AFB002013E083
:100A00000B4800F097FB01200EE0201CFFF7A2FE30
:100A100062B66946C879FFF795FE0228E8D1EDE78E
:100A2000201CFFF797FEE9E702B010BD0C8D020015
:100A3000248D020010B582B0041E21D000226B4626
:100A4000DA71FFF76DFE01282AD068460730FFF7FC
:100A500077FE022801D172B617E0002815D08F2149
:100A6000124AFFF745FB10E0002803D094210F4AFB
:100A7000FFF73EFBA2780020002A15D1E27013E0B8
:100A80000B4800F057FB01200EE0201CFFF75CFE36
:100A900062B66946C879FFF755FE0228E4D1E9E756
:100AA000201CFFF751FEE5E702B010BD0C8D0200DF
:100AB000508D0200002070470020704700207047D2
:100AC000203843425841704770B5061C046800E066
:100AD00001342578281CFFF7F3FF0028F8D1002DFA
:100AE0000FD0281C251C002804D107E001352878E8
:100AF000002803D0FFF7E4FF0028F7D03560201C62
:100B000000E0002070BDC04610B582B001900C1C02
:100B1000007800284DD001A8FFF7D6FF206001998A
:100B20000A780120002A45D000230B704A1C01924C
:100B3000497800293ED001A8FFF7C6FF6060019BFD
:100B40001A780220002A35D0002119705A1C01920F
:100B50005B78002B2ED001A8FFF7B6FFA0600199AB
:100B60000A780320002A25D000230B704A1C01922A
:100B7000497800291ED001A8FFF7A6FFE060019B7D
:100B80001A780420002A15D0002119705A1C0192ED
:100B90005B78002B0ED001A8FFF796FF2061019C27
:100BA00021780520002905D000222270013401940B
:100BB00000E0002002B010BD70B58618D30708D53C
:100BC0000BE003780A78451C4C1C93420CD0981A11
:100BD00002E0B042F5D1002070BD03780A78013000
:100BE00001319342F5D0F2E743784A78681C611CE2
:100BF0009342EED0EBE7C0462ADF704739DF7047FB
:100C0000F8B5061C0D1C081C00F04AFF041C301C23
:100C100000F046FF844205D1301C291C221CFFF73E
:100C2000CBFF01E001204042F8BDC046F0B58BB0DB
:100C30000C1C002800DCBCE008685F49FFF7E0FFFF
:100C4000002806D10120FFF7D9FF002801D1FFF7C6
:100C5000D3FF20685949FFF7D3FF002818D158481F
:100C6000FFF798FE051E13D0564B9869066802A937
:100C700006220A7000274F7003A85349022200F091
:100C8000A5FD029803992A1CB047281CFFF7D2FE45
:100C900020684E49FFF7B4FF002823D14C4D286847
:100CA0006968009001910820FFF7B6FD071E19D072
:100CB00004306946082200F089FD424B9E69356880
:100CC00004A906220A700020487005A83E49043194
:100CD000022200F07BFD049805993A1CA847381CB5
:100CE000FFF7A8FE20683B49FFF78AFF002801D1E3
:100CF000FFF782FF20683849FFF782FF002826D1DE
:100D00000620FFF789FD051E21D0344B1A7859784B
:100D10009878DE781F795B792B716F71AE71E8710D
:100D200029726A72274A91690E6806A80627077019
:100D30000023437007A824490431022200F046FD35
:100D4000069807992A1CB047281CFFF773FE2068F5
:100D50002349FFF755FF00282BD1802465052E6E0F
:100D6000686E2A6E696E071C77404A40130C5F401C
:100D70006C4627800220FFF74FFD061E19D0043075
:100D80006946022200F022FD0E4DA869076808A9F5
:100D900006220A7000234B7009A80B490431022275
:100DA00000F014FD08980999321CB847301CFFF771
:100DB00041FE00200BB0F0BDCC8D0200D08D0200B2
:100DC000308C0200F8260020C48D0200D48D020071
:100DD00060000010D88D0200DC8D0200A40000101D
:100DE000E08D020010B588B001AB18806846018024
:100DF000002103910491059106910791101D03A90B
:100E0000FFF782FE041C03A9FFF710FF044AD36911
:100E1000002B02D0201C03A99847002008B010BD69
:100E2000F8260020084B094A9A60094ADA60094A04
:100E30001A61094A5A6106221A70084A5A60986172
:100E40000968D961181C7047F8260020B50A02000D
:100E5000B90A0200BD0A0200E50D0200E88D020099
:100E60000020704700207047F0B55F4656464D465B
:100E70004446F0B483B0061C93461A4B187F0028F2
:100E800029D0002927D0019100250027164A924633
:100E900091460F2188465C46002C12D074192378A5
:100EA00018095246105C02F0C7FC0028F6D12578DC
:100EB00041460D404B46585D02F0BEFC0028F6D17D
:100EC00004E0705D02F0B8FC0028FAD101373D1C47
:100ED000019CA742DFD103B03CBC90469946A24694
:100EE000AB46F0BD28280020208E020010B586B049
:100EF00001AB18808BB268460180141C190A002AC5
:100F000037D0002935D0012912D11B4808210022F1
:100F1000FFF7AAFF201D22786478210211430122E5
:100F2000FFF7A2FF154809210022FFF79DFF20E0EF
:100F300002290AD102A81249102200F047FC02A897
:100F400010210022FFF790FF13E0032911D10A4876
:100F500008210022FFF788FF201D227863781902FC
:100F600011430022FFF780FF044809210022FFF708
:100F70007BFF002006B010BD008E02000C8E020028
:100F8000EC8D020000B589B06B460022DA810E3389
:100F90000D480490102105910C4A069280204100D2
:100FA000079100930A48283004A90A4A032302F053
:100FB00043FB0121002803D10122054B1A770021B0
:100FC000081C09B000BDC0461828002018270020C2
:100FD00028280020D90F0200F0B5474680B484B01D
:100FE0000378002B63D06BE02078374A50770A28CB
:100FF00008D002D808283BD128E00D2802D07F284D
:1010000036D123E00A2002F017FC0D2002F014FC78
:101010002D4B186A00284ED02B4DAA8C8118002623
:101020000E71AB691868804602A8391C022200F0D4
:10103000CDFB03A906220A704E70029803992A6A12
:10104000C047286AFFF7F6FC2E6234E01E48828C07
:10105000002A30D0082002F0EFFB202002F0ECFB49
:10106000082002F0E9FB18498E8C013E8E8422E0B4
:1010700015490B6A002B08D12020FFF7CDFB124D3C
:1010800028620026AE84031E15D00F48828C1D787E
:1010900059780E022E43013EB2420CDA20789B189A
:1010A00018710132084DAA8402F0C6FB03E06C46B9
:1010B0000734064F1037201C02F0B6FB002893D0EF
:1010C00004B004BC9046F0BD28280020EC8D02003E
:1010D000014B587F7047C0462828002070B50A4B46
:1010E0000A4A9A600A4CDC600A4D1D610A4E5E6134
:1010F00001221A70094C5C609961191C283170C872
:1011000070C1181C70BDC04628280020850F020041
:10111000610E0200650E0200ED0E0200188E020044
:1011200008B5034B197F002901D002F085FB08BDEB
:101130002828002010B5041C064B187F002808D072
:101140002078002805D002F077FB013420780028B1
:10115000F9D110BD28280020F0B5474680B4041C02
:101160000E1C2A4B187F002837D0002935D0284D77
:101170000F27013901220A40904623781809285C7C
:1011800002F05AFB21783940685C013402F054FBCC
:10119000202002F051FB013E002E21D11DE02278DB
:1011A0001309E85C02F048FB20783840285C02F024
:1011B00043FB202002F040FB62781309E85C02F058
:1011C0003BFB60783840285C023402F035FB20207D
:1011D00002F032FB023E002EE1D104BC9046F0BD8D
:1011E0004246002ADBD023781809285C02F024FB51
:1011F00021783940685C013402F01EFB202002F0A7
:101200001BFB013E002ECAD1E7E7C046282800207C
:10121000208E0200F0B5474680B4041C0E1C244BFF
:10122000187F00282ED000292CD0224D0F270139FD
:1012300001220A40904623781809285C02F0FCFA43
:1012400021783940685C013402F0F6FA013E002E44
:101250001BD117E022781309E85C02F0EDFA207840
:101260003840285C02F0E8FA62781309E85C02F082
:10127000E3FA60783840285C023402F0DDFA023E7E
:10128000002EE7D104BC9046F0BD4246002AE1D0D2
:1012900023781809285C02F0CFFA21783940685C7D
:1012A000013402F0C9FA013E002ED3D1EAE7C0466C
:1012B00028280020208E0200F0B5474680B482B076
:1012C0000F1C414B197F00295AD0FEB20568002E31
:1012D0002DD0701E012202409046281C0A2106F0E3
:1012E000B9FF6C4621700124281C0A2106F06EFF0C
:1012F000051CA64255D11AE0281C0A2106F0AAFFB7
:101300006A4611550134E4B2281C0A2106F05EFF3A
:10131000051C0A2106F09EFF6B4619550134E4B204
:10132000281C0A2106F052FF051CA642E4D1791EB2
:10133000002F25D000AE7418244D092002AFC61B23
:10134000A719013F0122174023780F210B40E85CC9
:1013500002F072FA013C3019002815D110E0217812
:101360000F200140685C02F067FA013C27780F22E9
:101370001740E85D02F060FA013C3319002BEED112
:1013800002B004BC9046F0BD002FE8D027780F22B1
:101390001740E85D02F050FA013C3319002BDED112
:1013A000EEE74346002BA7D00A2106F053FF68461C
:1013B00001550134E4B2281C0A2106F007FF051C80
:1013C000A64299D1B3E7C04628280020208E02000B
:1013D000C130FF3080000122A023D9054250704760
:1013E0008900C130FF308000A023DA0581507047AA
:1013F00001238340181CA121CB00A022D105C85095
:101400007047C04601238340181C0249A022D3051F
:10141000585070470C050000F8B5154C0251842255
:1014200055004259002A15D184267500C027BF01F6
:10143000541C221C4659002E03D1621C4459002C16
:1014400012D0C025AF01BA4204D1081CFFF7D0FF6B
:10145000002008E00021842672008150A324E500CA
:10146000405918700120F8BDBA42E1D1EDE7C046FD
:101470001C050000002803D00068431E984100E0CE
:1014800000207047F8B54F464646C0B40E1C171CE6
:10149000984608AB1978894609AA15780A9C002C49
:1014A00053D0002802D13049216003E001284FD1F8
:1014B0002E4B236025714046FFF78AFF4846FFF711
:1014C00087FF281CFFF784FF281CFFF791FF381CBB
:1014D0000021FFF785FFA122D50048462368585117
:1014E000234D424621684A51A220C3002568EF508F
:1014F00080277A051F4821680A50012E0BD0002E44
:1015000004D0022E0CD0032E25D10EE000261A4D59
:1015100023685E510DE00227174A2068875008E0D3
:101520000422154821680A5003E00625124B27685B
:10153000FD50002684214D0023685E512468012758
:10154000A022D0002750002009E00126704204E0CC
:101550000120404201E002267042002121600CBCC3
:1015600090469946F8BDC04600300040004000401B
:101570000C0500002405000054050000F0B55F468E
:1015800056464D464446F0B483B082460C1C171CA8
:101590009B46FFF76FFF002800D185E051460E689B
:1015A0000D79281CFFF72EFF002C25D0A046231C08
:1015B000013B01221A4091463A78301C291C6B46A7
:1015C0000733FFF729FF002800D0BFE070E07A5C06
:1015D000301C291C6B460733FFF71EFF002867D01D
:1015E00001343A5D301C291C6B460733FFF714FFAA
:1015F000002800D0C3E05BE05F46002F27D05F46A5
:101600007B1E01221A4090460C9C2278301C291C1B
:101610006B460733FFF700FF002800D077E04BE070
:101620000C9AD25C301C291C6B460733FFF7F4FE82
:10163000002841D001340C9B1A5D301C291C6B46DC
:101640000733FFF7E9FE002800D079E034E00D9F72
:10165000002F36D000246846C4710730391CBB46C1
:10166000041C00270B1C013B01221A4091460E9BD3
:10167000301C291C0022FFF7CFFE00282DD11FE0CF
:1016800022780E98C318301C291CFFF7C5FE0028CD
:1016900016D0013722780E9BDB19301C291CFFF76E
:1016A000BBFE00282ED10BE001214842834608E012
:1016B00002246242934604E002267542AB4600E0F3
:1016C000BB4657463879FFF793FE584603B03CBCFB
:1016D00090469946A246AB46F0BD01373B1E5B459E
:1016E000EFD048460028CBD022780E99CB19301C79
:1016F000291CFFF791FE0028E2D001373B1E5B4515
:10170000BED1DEE701373B1E5B45B9D1D9E70024E6
:101710000134231E5B459AD04046002800D17FE764
:101720000C990A5D301C291C6B460733FFF774FEC9
:101730000028C1D00134231E5B4500D070E786E746
:101740000134231EBB4200D06AE780E70024013445
:10175000211E414500D14FE74846002800D136E719
:101760003A5D301C291C6B460733FFF755FE0028F5
:101770009ED00134211E414500D028E73CE70134CA
:10178000211E414500D022E736E7C04610B584B09F
:101790000C1C00920193069B029300210022231C43
:1017A000FFF7ECFE04B010BD4ADF704712DF704750
:1017B00030B5012200238469C56912196B41826129
:1017C000C36130BD004870478000001030B500286C
:1017D00019D0002919D0002A18D08218031CC4433C
:1017E0001419012525400C7804700133013193420E
:1017F0000DD10BE00C781C704D785D700233023116
:101800009342F7D102E0002000E0002030BD002D1F
:10181000F0D00D781D70013301319342EAD1F5E724
:1018200030B5C9B2002A0FD08218031CC443141962
:1018300001252C4001700133934206D104E0197058
:10184000597002339342FAD130BD002CF7D0197091
:1018500001339342F3D1F7E7F0B54F464646C0B4A3
:101860008FB081460D1C141C9846002601966F46C9
:101870000337381CFFF79AFF02A8211C1022FFF73C
:10188000A5FF06A841460822FFF7A0FF0896099683
:101890003B78002B04D103F039FC201C03F08EFCB4
:1018A0000F2D38D94C466E460336281C1038C10619
:1018B000CF0F3278002A00D06EE073E03778002F27
:1018C00007D10AA806A903F03DFC002806D1012093
:1018D0005DE002A8FFF768FF002857D120680A9949
:1018E0004840206063680B9A53406360A7680C9877
:1018F0004740A760E1680D9B5940E1601034019AB0
:1019000010320192103D02A8FFF752FF3778002FE6
:1019100000D097E09CE04C46002D2BD06E4603365D
:101920003778002F07D10AA806A903F00BFC00287E
:1019300008D101202BE002A8FFF736FF011C01208F
:10194000002924D10A98236858400A900B9E6268A7
:1019500056400B960C9FA1684F400C970D98E3687A
:1019600058400D90201C0AA92A1CFFF72FFF019C4C
:10197000651901954848FFF7DDFB01A80221FFF733
:10198000EBFB4648FFF7D6FB002000E001200FB03C
:101990000CBC90469946F0BD02A8FFF705FF002851
:1019A00007D0F3E70AA806A903F0CCFB002800D172
:1019B0008DE723680A984340236061680B9A514081
:1019C0006160A3680C984340A360E1680D9A5140A0
:1019D000E1601034019B10330193103D02A8FFF722
:1019E000E7FE0F2D98D9002F00D167E73778002F39
:1019F00005D002A8FFF7D8FE002807D0C6E70AA83E
:101A000006A903F09FFB002800D160E720680A992F
:101A10004840206063680B9A53406360A7680C9845
:101A20004740A760E1680D9B5940E1601034019A7E
:101A300010320192103D02A8FFF7BAFE0F2D00D917
:101A40003CE769E702A8FFF7AFFE002807D09DE753
:101A50000AA806A903F076FB002800D137E7206822
:101A60000A994840206063680B9A53406360A768F6
:101A70000C984740A760E1680D9B5940E160103425
:101A8000019A10320192103D02A8FFF791FE0F2D2E
:101A900000D913E740E7C046308E0200388E0200BE
:101AA0000378002B05D000210131425C002AFBD1D4
:101AB00000E00021081C70472ADF704739DF7047BB
:101AC0008023D800044A1158002903D00348C023BA
:101AD000D90050507047C046000001403546526E54
:101AE00010B5012401235940074B084A99509958D1
:101AF0009950C003064A9850A121C8001A582243A1
:101B00001A501C6010BDC046000001400C050000CA
:101B1000040500000000000070B5041C1A480121F3
:101B20001A4A01F0B3FA00281BD1174B1E68FA209D
:101B300081004C43630CE203104D0F4C101C191C28
:101B4000001969410E4A0F4B06F014FC011C301CB1
:101B5000002201F0F1FA002803D10D48FFF7EAFA5C
:101B600006E00120FFF7AAFF002801D1FFF7A4FF3C
:101B700070BDC046C046C046F40100000000000031
:101B8000E8030000000000005C280020C11A0200E9
:101B9000548E0200C046C0460C4802680F210A431A
:101BA00002600B490B4A0C4B9B1A03DD043BC858DF
:101BB000D050FBDC491A094A094B9B1A02DD043B51
:101BC000D150FCDC07488047074800472405004007
:101BD0004C960200002400202C2400202C240020FD
:101BE000F8330020952602002D6B0200FEE7FEE789
:101BF000FEE7FEE7FEE7C046C0DF7047C2DF704782
:101C0000C3DF7047C6DF7047C7DF7047CCDF704760
:101C1000CDDF7047CFDF7047D3DF7047D4DF704729
:101C2000D6DF7047DADF7047DDDF7047E7DF7047E8
:101C3000F0B54F464646C0B483B08046171C91426B
:101C400037D80C1C01AD0026531A01221A409146C8
:101C50002E70081C291CFFF7E9FF002843D12FE054
:101C60002E70201C291CFFF7E1FF002814D12B78CF
:101C7000002B11D0201C694606316A460532131C20
:101C8000FFF7CCFF002807D1404602886946CB8881
:101C90009A4201D1201C0EE00134E4B22E70201CC7
:101CA000291CFFF7C3FF002857D143E001277842E2
:101CB00001E00120404203B00CBC90469946F0BDC3
:101CC000297800290FD0201C694606316A46053262
:101CD000131CFFF7A3FF002805D1404602886B467E
:101CE000D9888A42D6D00134E4B2A742DED348462E
:101CF0000028B5D02E70201C291CFFF797FF002864
:101D000012D12A78002A0FD0201C694606316A4673
:101D10000532131CFFF782FF002805D143461888BF
:101D20006946CA889042B5D00134E4B2A74200D3D4
:101D300096E7BBE7287800280FD0201C69460631BB
:101D40006A460532131CFFF769FF002805D1424699
:101D500010886946CB8898429CD00134E4B2A742EF
:101D600000D37DE7A2E7C046F0B583B00E1C8842E1
:101D700023D8041C6D4607350B1A0122171C1F407F
:101D8000291CFFF753FF00281ED11AE0201C291C34
:101D9000FFF74CFF002804D12B78002B01D1201C29
:101DA0000DE00134E4B2201C291CFFF73FFF00289E
:101DB00021D11DE00126704201E00120404203B024
:101DC000F0BD29780029EAD00134E4B2A642F1D36B
:101DD000002FDBD0201C291CFFF728FF002802D190
:101DE00028780028DBD00134E4B2A642CED2E1E765
:101DF0002A78002AD3D00134E4B2A642C6D2D9E769
:101E0000F8B5041C0E1C151C4978F278FFF7F6FE95
:101E1000071CB178201CFFF7FBFEC6192988AA7899
:101E2000EB78201CFFF7F8FE3518201CFF21FFF788
:101E3000F9FE2F18201C0021FFF7F2FE3E18201C8F
:101E400004210022FFF7E6FE3018F8BD70B5051C2E
:101E5000141C4E78CA78311CFFF7D0FE061C21886E
:101E6000A278E378281CFFF7D7FE801970BDC04622
:101E700010B582B00C1C124B197800290BD1E07AF6
:101E80001F22904319D0A17BE27B01ABA08918806F
:101E90009970DA700AE001290FD101A96A46063269
:101EA0006B460733FFF7BAFE002806D104494A689B
:101EB000E11C546801A80822A04702B010BDC0462A
:101EC0006028002030B585B0041C002301930293E4
:101ED0006A46D370002803D11048017800291AD02F
:101EE000201C03A96A460E326B460F33FFF796FE9D
:101EF000002810D1094D6B686D4603351B6803A897
:101F000001A92A1C984729784A1E072A03D8201CB1
:101F100001AAFFF779FE05B030BDC0466028002059
:101F200070B586B0061C0D1C04AB0024049442223C
:101F30009A701B489880FFF75FFE02A81949082293
:101F4000FFF744FC002002A9FFF760FE0194002D7A
:101F500022D015490E704D600020002E1ED1E020C9
:101F6000FFF762FE002803D06221104AFEF7C0F896
:101F70000F48FFF7DFF8002004A901AA0023FFF7AC
:101F80003FFF002803D06421084AFEF7B1F8002083
:101F9000FFF738FE002001E00126704206B070BD58
:101FA000110100006C8E020060280020748E020077
:101FB000888E0200F0B5474680B484B0051C2C4BD7
:101FC0001E7874427441211C0722FFF731FE071C62
:101FD000A046A0420CDB2748FFF7ACF8002602968B
:101FE0000396F8B2082102AAFFF70EFE00243AE099
:101FF000201C0721FFF7B8FE041C804531DC2B882C
:10200000072213408821CF00D819002300935022C3
:1020100069464A7042278F708880012E0BD1E0B24A
:102020002A1C2023FFF7ECFE002811D08221124A3F
:10203000FEF75EF80CE0002369464B70E0B22A1C04
:10204000FFF704FF002803D087210B4AFEF750F862
:10205000002502950395E0B2082102AAFFF7D4FDFE
:1020600001E001204442201C04B004BC9046F0BDB5
:1020700060280020A48E0200748E020010B582B089
:10208000114B1C7863425C41211C0722FFF7D0FDF5
:102090000190A04213DB0D48FFF74CF801A8012185
:1020A000FFF75AF80A48FFF745F807490A78002071
:1020B000002A06D16B461879FFF7A2FD01E0012046
:1020C000404202B010BDC04660280020C48E02000D
:1020D0008C92020010B50478811C4378DAB2072A8A
:1020E0000ED0802A02D0032A0DD104E0201C202229
:1020F000FFF7BEFE07E0201C2022FFF7E3FE02E010
:10210000201CFFF77DFD10BD70B50B78013B5D0015
:10211000EA185400A5B20378467832021A43561BD7
:10212000002E0BDD002200238C18A478821852198F
:1021300014710133DBB21A1EB242F5DB002070BD10
:102140007047C04610B5041C4069002801D0FEF756
:1021500071FC00236361638010BDC04610B5041C90
:10216000C069002801D0FEF765FC0023E361052269
:1021700050422083638310BDF0B5474680B4048885
:10218000604BA0229958013199509F89A74212D0E3
:102190001B8EA3420BD054205A4D2A5AA24208D07B
:1021A0007820584E355AA5420FD1032304E001236D
:1021B00002E0022300E00023524FDE00F418A200E8
:1021C000B818C162051C0C3597E0002F0BD0002B0E
:1021D00005D0002A05D00327002D05D013E00127E4
:1021E00002E0022700E00027464EFA00D0198500E1
:1021F0007519AC81E9620C35281CFFF7AFFF281C6C
:10220000FFF7A0FF79E03F4F3B6A002B56D13D4AD4
:10221000906A002852D110E03A4FFB6C002B51D14C
:102220000DE0384E356F002D50D10AE09420354E28
:102230003558002D4FD1032604E0002602E0012688
:1022400000E002262F4AF0008519AB00D518E9629C
:10225000AC810C3551E02B4AD06A0E1A032E3ED9C0
:1022600014E0284B1A6D881A03283CD910E0254F3A
:102270007B6FCA1A032A3AD90CE09827214BDA5906
:10228000891A00250326032905D836E0002602E036
:10229000012600E002261B4FF00080468519AB00A6
:1022A000FD180C35281CFFF74DFF424691198E0092
:1022B000B819A023FF58C76284811EE0114E756CC7
:1022C000002DA9D00F4A906E0028AAD08C270D4B64
:1022D000DA59002AAAD00B4FBB6A002BBBD0094D9C
:1022E000EF6C002FBDD0074E356F002DBFD094206E
:1022F000044E3558002DC0D00025281C04BC904643
:10230000F0BDC0466828002008B5031C04301A78C8
:10231000597809021143002201F09CFA08BDC04619
:10232000F8B5061C0D1C171CFFF726FF041CC3691B
:10233000002B00D19FE0417B013148004218638BA4
:1023400059085018172800D8182008223A70278BEF
:102350003BB2002B06DA211C0C31281C0822FFF7A7
:1023600035FA85E039B288426CD9081C617B0131AD
:1023700005F0D0FF8EB2002E06D1211C0C31281C96
:102380000822FFF723FA73E02970637B6B7009045E
:10239000080C0138420017187E00B3B2E2691078C9
:1023A00051780F020743BB4202DB0026AE7002E009
:1023B000D2181079A870591CE7693E787A78100213
:1023C0003043814202DB0021E97002E07F183E7950
:1023D000EE70991CE2691778507806023E43B142CC
:1023E00002DB0021297102E0521817792F71D91CE4
:1023F000E2691678507807023743B94202DB0021C0
:10240000697102E0521816796E711F1DE1690A7830
:10241000487806021643B74202DB0027AF7102E09C
:10242000C9190A79AA710533E669307877783902D3
:1024300001438B4203DAF2181679EE7118E000239B
:10244000EB7115E0E569281CFEF7B8FA201CFFF7D0
:1024500085FE9C2408480259002A05D05768002FA1
:1024600002D0301C291CB847281CFEF7E3FA02E012
:10247000258B01352583F8BD6828002070B5041C24
:102480004B78002B32D00A78934231D3002A17D1EF
:102490004E790D79CB7918028A79831860899AB2BE
:1024A00090421ED0201D0822FFF790F9201CFFF754
:1024B00049FE31026E18B0B2FEF7AEF9606110E06D
:1024C000406900280DD0FFF71FFE608861798842BF
:1024D00007D36069FFF718FF6589854201D16069FC
:1024E00007E0658801356580002002E0002000E0FB
:1024F000002070BDF8B5051C0F1C161CFFF73CFE34
:10250000041E1BD0391C321CFFF7B8FF011E0CD073
:102510009C230B4AD058002804D00768002F01D014
:10252000281CB847201CFFF70DFE6169002905D063
:10253000E569002D02D0668B01366683F8BDC04682
:1025400068280020054B064A1A6006495960064A69
:102550009A609C215850181C7047C046682800207B
:1025600021230200F524020041210200F8B5071CD6
:102570000D1E3AD0FFF700FE041E30D0C369002BB9
:102580002DD1FFF7EBFDE561281CFEF717FA0026B9
:1025900026736673A673E67326746674A674E6746F
:1025A0002A786878030213432382281CFFF7ACFEC5
:1025B0006082267329786D782D020D43281C062130
:1025C00005F048FE8EB2731E9E41281C062105F0C0
:1025D000FDFD32186273381CFFF7ECFC07E004487D
:1025E000FEF7A8FD0221484201E001204042F8BD6B
:1025F000D88E0200144B19780020012922D1134AE9
:1026000013681A071ED112480168F0220A4006D149
:10261000104B1868F02108404342584112E0102A3C
:1026200006D10C480068F02210404342584109E0AE
:10263000302A06D1074B1868F02108404342584120
:1026400000E000207047C046E00F00F0E40F00F00B
:10265000E80F00F0EC0F00F00A4B19780020012978
:102660000FD1094A13681A070BD108490A68F023E9
:102670001340402B05D106480068F0210840434232
:1026800058417047E00F00F0E40F00F0E80F00F051
:10269000EC0F00F008B5FFF7ADFF002806D0094A9F
:1026A000094B1A6080200102084A1160FFF7D4FF2D
:1026B000002805D00120C123D9008022D30558501D
:1026C00008BDC046DFFF07C004050040186C00408D
:1026D0001F23184001218140014A11607047C04604
:1026E00000E100E01F231840012181408023014ABE
:1026F000D150704700E100E01F23184001218140C4
:10270000081C802253000149C850704700E100E0D6
:102710001F23184001218140081CC0225300014999
:10272000C850704700E100E070B5002814DA0F23AC
:102730000340083B9A089400104EA3195D680322D9
:102740001040C000FF26341C8440A54389010E4080
:10275000864035435D6010E08208094BC03292002C
:10276000D55803242040C000FF24261C8640B543D2
:1027700089010C4084402543D55070BD18ED00E020
:1027800000E100E000280EDA0F220240083A930828
:1027900099000B4A8B18596803221040C000C140B1
:1027A0000906880F0AE08208C0329100054BC9581B
:1027B00003221040C000C1400906880F7047C04680
:1027C00018ED00E000E100E008B5064B5868C105CF
:1027D000CA0D0420002A04D0103A50B2FFF7D2FFED
:1027E000C0B208BD00ED00E0032318404342584149
:1027F0007047C04682B00190C046C046C046C04641
:10280000C046C046C046C046C046C046C046C04698
:10281000C046C046019B013B0193002BECD102B0A6
:102820007047C04608B5A123D900034A5050112073
:102830000321FFF779FF08BD0010014010B50A4CD5
:1028400080235802D12291006050C1239A00A050E9
:102850001120FFF75DFF1120FFF73AFF01202060F4
:102860002F20FFF7C7FF10BD0010014008B5112051
:10287000FFF738FF074B80225002D2218A00985080
:10288000C2218A009850012058602F20FFF7B2FF24
:1028900008BDC04600100140014B024AD0587047A5
:1028A0000405000000100140401A0102080A7047A8
:1028B000A823D900014A50507047C046001001407B
:1028C000F0B51B4B1D68C70039188A00AF18194CAA
:1028D0002368591C02D11749086027E07A68DE0096
:1028E000F1188C0029194C681E1CA24206D8A41AA3
:1028F0004C603B620F4B186018E01E1C121B0B6AE9
:102900005C1C0CD0D900CC18A10069184C6894420A
:10291000F3D3D900C91889006918A41A4C607A60E9
:102920003B62F700BE19B200AD182862F0BDC04688
:10293000142900202429002030B51D4B1C68621C7E
:1029400035D084420ED01B490968221C02E098420F
:102950002AD01A1CD500AB189D004B191B6A5D1CB0
:10296000F5D124E0231C221C12480568E1000C1953
:10297000A0002D182C6A0E490C600E480568DC007A
:10298000E318990068184468036AD1008A18900017
:1029900029180B625A1C0AD0DA00D31898002D1897
:1029A00069680C196C6002E09342DDD0E5E730BD48
:1029B000242900201429002008B51120FFF79CFECF
:1029C00008BDC04608B51420FFF796FE08BDC046F6
:1029D000104B1978104A13788B4217D00131CBB2C3
:1029E000022B02D00B4A137002E00021094B197030
:1029F000084A11788A00094BD258026008480168D9
:102A000053181A02110A0160012002E0002101603E
:102A1000002070472029002021290020282900209B
:102A20000C290020F0B55F464E464546E0B482B022
:102A30002C4B1A6890462C480478013CE4B22B4F8A
:102A4000002189463FE0E3003A68D5182E7835E04A
:102A500071008B19DA00686882180136F3B2AE781B
:102A6000F01A411E884146421E401178CBB2022B1B
:102A700006D0032B22D11B4803685A1C11D11DE03C
:102A80005068C1000A18930019490A68D3189B4678
:102A9000197D002912D0FFF74FFF48465A4610759E
:102AA0000CE013490868DA00D318990043184A4625
:102AB0001A751B6A5A1CF6D10A4803606878B0423E
:102AC000C6D1013CE4B2FF2CBDD1064D2E6847466D
:102AD000F01B431E984102B01CBC90469946A34689
:102AE000F0BDC04624290020182900201C29002000
:102AF00014290020F0B557464E464546E0B48C46B2
:102B0000111C184B1A689246174C2468002600279F
:102B10001FE0E5002B199B0053445D68A84204D2D6
:102B200011490C60281A586017E0401B76195F6045
:102B30001F751A6A90461D69002D09D0B146E144FF
:102B40004A461202120A9A60DD600D681D620C602E
:102B50004446621CDDD1044804601CBC9046994682
:102B6000A246F0BD1429002024290020F0B55F46BC
:102B700056464D464446F0B483B0051C3F4B18689A
:102B800001903F490A78013AD4B2A0463D4EB3467F
:102B90003D4FBA463D4B994660E04446E6005F46ED
:102BA0003B689E1950E0EF007C19A300514608686D
:102BB000C4182F1C256A21E04F007B18DA007068CA
:102BC00082180131CCB23470B178A14201D1002712
:102BD000377057682C4B18681478012C34D1F900E1
:102BE000CB199C000419207D00282DD19168A1608B
:102BF000D368E360106920615269E261A3684A46C4
:102C00001168581A0202120A2148824206D8181C7A
:102C1000FFF74AFEE168401860600BE0081C191CD1
:102C2000FFF742FEE168884202D20A1A626001E0C0
:102C3000002363600023A360E360012222755142F8
:102C40002162381CFFF73CFE6A1CACD131787078E9
:102C50008842B1D14246013AD4B2A0464046FF284C
:102C60009BD1064D2A680199501A431E984103B022
:102C70003CBC90469946A246AB46F0BD24290020B4
:102C8000182900201C290020142900200C290020CC
:102C9000FEFF7F00F0B5474680B4071C1C4B186848
:102CA000421C2FD01B4A1468C1000D18AE00A31996
:102CB0005E68FFF7F1FD041C17480568201C291CFD
:102CC000FFF7F2FD03308046013701D1FFF7B6FD73
:102CD0004746B74200D2371C7A1911020D0A281C48
:102CE000FFF7E6FDFFF7D8FD211CFFF7DDFD061C11
:102CF000281C211CFFF7D8FD0336864204D9FFF7B4
:102D00005BFE01E0FFF7B2FD04BC9046F0BDC0469B
:102D100024290020142900200C290020F0B583B0BC
:102D200001235842019011490F68114A16686846FC
:102D3000FFF74EFE041CFFF775FE051C002C08D0A3
:102D40000098391C01AAFFF7D5FE0198FFF70EFF86
:102D500006E00198FFF70AFF002801D1002D02D0FC
:102D6000301CFFF797FF03B0F0BDC0460C290020D0
:102D7000242900204170704710B5437801338278D0
:102D8000D21A541EA2415442234002789A4207D0DC
:102D90000B6041784B005C18E2004068801800E04E
:102DA000002010BDF0B5474680B482B08846171C9D
:102DB0001E1CC000104B1D682D18281C01A9FFF710
:102DC000DBFF041C0420002C11D00121217042469D
:102DD0006260FFF761FDA060E7602661089F6761A0
:102DE000281C0199FFF7C6FFFFF7ECFD002002B099
:102DF00004BC9046F0BDC0461C29002030B583B00D
:102E00000D1CC0000B4B1C682418201C01A9FFF7E7
:102E1000B3FF011C0420002909D002220A704D6072
:102E2000201C0199FFF7A6FFFFF7CCFD002003B09F
:102E300030BDC0461C29002008B5FFF7C5FC01289D
:102E400005D00338434243410220C01A00E000206D
:102E500008BDC04608B50A4B1B68002B0BD0826921
:102E6000C169101C9847002809D0AA235900054AB7
:102E7000FDF73EF903E0C2698169101C884708BD6F
:102E800010290020E88E0200F8B5204B1C68631C56
:102E90003AD0FFF701FD1E490968FFF705FD051C43
:102EA000E000021996001B4F3B6898194468A54240
:102EB00012D30026174F07E0E100081982003B6893
:102EC00098184468AC4208D82D1B3619046AFFF7DD
:102ED000C1FF631CF0D100E000260F4D2F780F4991
:102EE0000878B84209D10137FBB2022B02D00B4A55
:102EF000137002E00024094D2C70084F39788800C7
:102F0000074BC650FFF75EFDF8BDC04624290020E0
:102F10000C2900201429002020290020212900202C
:102F20002829002008B50B4B0022A02148001A5088
:102F3000A22148001A50A42148001A50A621480096
:102F40001A50802148001A50822148001A50FFF779
:102F50009BFF08BD0010014008B5FFF7DFFE08BD6C
:102F6000F0B557464E464546E0B481468A469046FF
:102F70001F1C181CFFF738FC0721002863D0002F06
:102F800061D0FFF773FC374B0898186036495246FA
:102F90000A70364C27605646002E1BDD3D1CF300A0
:102FA000534498000024011C24398E08304A5643AB
:102FB000012333403C703C7524212435814248D1A3
:102FC00008E02C702C7524352C702C754831243574
:102FD0008142F6D15546E800504484003E19032250
:102FE000244B1A7024490E60371C18374546680078
:102FF0004044C400002333707370B5707760391992
:1030000033727372B572F16033747374B5740F19DF
:1030100077610126754219480560194C2370194AD9
:1030200013701420FFF774FB14200321FFF77CFBBF
:103030001420FFF74DFB4846FFF7F4FBFFF72CFC8D
:10304000114B18600021081C1CBC90469946A246F2
:10305000F0BD002BB5D02C702C7524312435814265
:10306000AFD1B7E710290020222900201429002021
:10307000398EE338182900201C290020242900203B
:1030800020290020212900200C290020F0B54746E6
:1030900080B48C469046264B1D68002D2AD0002A0D
:1030A0002AD000282AD023490978002928DD2C7845
:1030B000002C14D109E02F1C251C231C24331A1CBE
:1030C000243A1278002A29D100E000270121297032
:1030D00066466E704246AA610760002011E02C1C13
:1030E00024340026CB070FD50136351E8D42E2DB96
:1030F000042006E0082004E0072002E0072000E0AA
:10310000042004BC9046F0BD0136371C251C243435
:10311000231C243B1A78002AE6D1D7E70136371C56
:103120001D1C1C1C24341B78002BDDD1CEE7C046AF
:103130001429002022290020F0B583B0041C0E1CA5
:10314000171C124B196800291DD01148057807205B
:10315000A54219D9042E17D9E200131998000918AD
:103160000D780820012D0FD14A78012A01D00025C1
:1031700000E0351CFFF760FE0097211C321C2B1C61
:10318000FFF710FE00E0082003B0F0BD1429002076
:103190002229002010B5041C0B4B1968002911D0FE
:1031A0000A4A13780720A3420DD9E00002199300C0
:1031B000595C0820012906D1FFF73EFE211CFFF7CC
:1031C0001DFE00E0082010BD142900202229002047
:1031D00010B5041CFFF760FB2060002010BDC04646
:1031E00010B5141CFFF760FB2060002010BDC04626
:1031F00010B500290BD00923002A09D0541E224201
:1032000006D10160848000238360C36000E00E2348
:10321000181C10BD10B5031CC46880689A88241A55
:103220000420944207D8D86802401C68A154D96889
:103230000131D960002010BD10B5031CC46882683C
:103240000520944209D098689C8804401A68105D53
:103250000870996801319960002010BD1F23184043
:1032600001218140014A11607047C04600E100E041
:103270001F23184001218140081CC022530001492E
:10328000C850704700E100E070B5002814DA0F2341
:103290000340083B9A089400104EA3195D6803226E
:1032A0001040C000FF26341C8440A54389010E4015
:1032B000864035435D6010E08208094BC0329200C1
:1032C000D55803242040C000FF24261C8640B54367
:1032D00089010C4084402543D55070BD18ED00E0B5
:1032E00000E100E0C130FF3080000122A023D905B9
:1032F000425070478900C130FF308000A023DA05BA
:1033000081507047120489001143C130FF308000A2
:10331000A023DA05815070470022054B1A7005483A
:103320000121C1604160A023D90042507047C046CE
:10333000442900200020004008B5074B18780128D8
:1033400002D0022806D102E0FFF7E6FF02E00322E6
:1033500001490A7008BDC0464429002008B5FFF79E
:10336000DBFF08BD0D4B0421A022D0001950002224
:10337000842148001A508E2148001A500849585894
:1033800001229043585001214942A120C000195008
:10339000A220C00019509A601A60704700200040B7
:1033A0006C05000010B50E4B0421A022D400195169
:1033B000002284214C001A518E214C001A510949D7
:1033C0005C58012214435C50C478A221C9005C50AF
:1033D0008078A124E10058509A601A6010BDC04660
:1033E000002000406C05000000B583B00123064AB0
:1033F000D3600648037003216B461970044A1168B4
:103400006846884703B000BD0020004044290020E2
:103410003029002000B583B0104B1878022802D064
:1034200001220F498A600F4869460731FFF704FF00
:10343000002802D0FFF7D8FF0EE0094B8022C220FF
:1034400081005A506946C8790749585002200349FB
:103450000870C12081005A5003B000BD44290020EB
:1034600000200040342900201C05000008B50F4B47
:103470001878002802D0032816D112E00C4B042043
:10348000A022D1005850012018600A4BDA689968D0
:103490008A4202D0FFF7BEFF06E00120034B1870FE
:1034A00002E0022201490A7008BDC04644290020FA
:1034B000002000403429002008B5034B187801286B
:1034C00001D1FFF7A7FF08BD4429002008B5054B2F
:1034D000DA689868824202D0FFF79CFF01E0FFF7AC
:1034E00083FF08BD3429002008B5074B1878002851
:1034F00008D0022804D9032804D1FFF70DFF01E00A
:10350000FFF7E4FF08BDC0464429002008B50428A1
:1035100011D88000084B19588F46FFF70DFF0AE0BD
:10352000FFF7A4FF07E0FFF7DFFF04E0FFF7C4FFAA
:1035300001E0FFF713FF08BD1C8F020030B583B018
:10354000051C0C1C0E4B18682840014209D00D497F
:10355000087801A901F026FC00280FD1019A154036
:103560009443074B1868204203D00120FFF7CEFF99
:1035700004E0284202D00020FFF7C8FF03B030BDAE
:10358000482900205C29002000B583B0842358001E
:10359000264A1158002923D0131C002084225100F0
:1035A0005850A320C2009B58D9B22148FFF732FEE1
:1035B000002808D0012269460A7001901D4803685E
:1035C000684698470CE01A49C8688A68831A012B34
:1035D00006D1002168460170164A1368684698476C
:1035E0008E22510011484358002B06D000228E2114
:1035F0004B00C2500320FFF789FF922041000B4A85
:103600005358002B10D0101C002192225300C1509F
:103610009021CB00C258C250022069460870019226
:10362000044B1A686846904703B000BD0020004074
:103630004C29002030290020F0B5474680B482B0E4
:10364000071C0D1C98460026694C267069480260CC
:103650000724002900D1C5E08A8867480968FFF778
:10366000C7FD041E00D0BDE0A968AA896348FFF722
:10367000BFFD041E00D0B5E07878FFF733FE387840
:103680000021FFF737FE79785D4B5E4A99503D780F
:103690005D4E9D515D48B96819507B79002B04D06F
:1036A0000E205B49564B585003E00025584E544AB3
:1036B00095513D79022D56D1B878FFF713FEBE78AB
:1036C0000125281CB040534BA021CE05F0504C4A98
:1036D00001204342A221CE009351B878A123D90002
:1036E00050504B4E905928439051F87885404A4AA3
:1036F000156000210322FFF705FEFD78089B19885D
:10370000002910D10122AA404448111C444B01F069
:1037100073FA00285FD1414D2B781902FF260E4322
:103720000898068004E0FE2957D90E0A3B48067027
:103730003A4A107801A901F035FB00284FD1374DE6
:10374000287801F085FA00284BD1FF780123BB408F
:103750000199194203D10120FFF7D8FE25E000208E
:10376000FFF7D4FE21E0012D10D1089E30880028FB
:1037700005D12C4D2A7808990A8001322A70381C0C
:10378000FFF710FE01271A4B1F700EE0089F3E88BE
:10379000002E05D12348027808990A800132027070
:1037A000FFF7E0FD0125124B1D701548012255421F
:1037B000C227BB00C550A126B100C12295004151CE
:1037C0000220FFF755FD02204146FFF75DFD022074
:1037D000FFF744FD06E0041C04E0072402E0041C9B
:1037E00000E0041C201C02B004BC9046F0BDC046A2
:1037F00044290020302900204C29002034290020B1
:10380000002000400C050000140500002405000005
:103810006C05000004050000482900205C290020F8
:103820003D3502000024002008B5011C0148FFF7C7
:1038300003FD08BD4C29002010B5011C0448FFF70A
:10384000E9FC041C0220FFF761FE201C10BDC046ED
:103850003429002070B5041C002A01D0108800E033
:103860002D4800293FD0231C6118E5436D18012223
:1038700015400602FF22000A0643B4B21E787440C7
:10388000E0B20609744020034440A4B2161C26404E
:103890007001604001338B4226D124E00602000A09
:1038A00010400643B4B21D786C40E6B23009444083
:1038B00025036C40A4B2161C26407001604004022F
:1038C000050A15402C43A6B258784640F4B22509A3
:1038D0006E4030034640B6B2141C34406001704064
:1038E00002338B42DAD170BD002DD7D00502000A19
:1038F00010400543ACB21E787440E5B2280944403C
:1039000026037440A4B2151C2540680160400133B1
:103910008B42C3D1E7E7C046FFFF000072DF70476C
:1039200079DF70477DDF704764DF70470870000AF9
:10393000487002207047C046F0B5474680B482B058
:10394000061C0F1C151C1478A31C0C201F2B2DDC2F
:10395000717802311F2929DC1D20021B93B2984681
:10396000694606310B80A21CB818FFF7DBFF002860
:103970001CD13178022905D16B46063319880922FA
:10398000884509D27178002902D00822884503D2DF
:103990006E46063631880822CBB25E1C3E55013495
:1039A000E4B23A552F780237D919297002B004BC15
:1039B0009046F0BDF0B583B0061C0D1C0B780433A7
:1039C0000C241F2B16DC68460630FFF7A9FF041EE7
:1039D00010D12F780320F055791CCBB21922F25464
:1039E0000237FFB22F706946C888F119FFF79EFFB2
:1039F000C6192E70201C03B0F0BDC04630B5051CA2
:103A00001378DC1C0C201F2C0BDC0220C8545C1C1F
:103A1000E0B20A240C54981CC4B20D550333137041
:103A2000002030BDF0B55F4656464D464446F0B4E2
:103A300085B0071C009191469B460E9880460278FF
:103A400001923B88002B49DD0024A24600246D46EC
:103A50000B35A0007968091803A80422FDF7B6FE0B
:103A600003A8291C0022FFF75FFF061E46D12A7813
:103A70004A451CD15346002B3AD131E0581CC2B202
:103A800069460878594688540233424613704146C5
:103A90000A785A4403A8291CFFF746FF00280BD1D7
:103AA000404602782B78D1180170012082460134FB
:103AB0003A88A242CDDC05E0061C1FE00C261DE082
:103AC0000C261BE05446002C18D0019DEF434346C2
:103AD000197878185C46019AA0540FE000260DE092
:103AE0004046037849465A1802321F2AC6DDE5E7E8
:103AF0004346187848441F28C9DDE1E7301C05B06B
:103B00003CBC90469946A246AB46F0BD70B582B02B
:103B1000051C161C1C1C069B00930222231CFFF78D
:103B200081FF002807D106980090281C311C102224
:103B3000231CFFF777FF02B070BDC04610B5021C12
:103B400003880720052B1AD90D495C18A4B20D492A
:103B50008C4214D95288052A11D9094C11198CB2FA
:103B600008498C420BD9084CA34205D0A24205D08B
:103B70009A429B41184002E0002000E0002010BD66
:103B80007FF3FFFF7DF30000FFFF0000F0B5474625
:103B900080B4071C8846151C1678B31D0C241F2BF7
:103BA0001BD8FFF7CBFF041E17D1052041468855CF
:103BB000721CD3B21220C8540236F6B22E70388866
:103BC0008919FFF7B3FE8119CEB22E707888474667
:103BD000B919FFF7ABFE32182A70201C04BC9046BE
:103BE000F0BDC046031C82880720002A09D09968CE
:103BF000002903D00B785A0702D402E0072000E026
:103C0000002070478388002B01D0072000E00020AF
:103C10007047C046F8B5041C1D1C4368002B19D022
:103C20002B7806889F1CBF190C201F2F13DC013630
:103C3000D654581CC6B291550233D9B229705018C7
:103C400022886168FDF7C2FD24782A7813192B7049
:103C5000002000E00720F8BDF8B5041C0F1C151C5F
:103C600002792B78991C961CF0B209180C201F2998
:103C70001FDC0332FA545A1CD6B2FF20B855023367
:103C8000DEB22E702088B919FFF750FE8319DEB21C
:103C90002E70A2880020002A0BD0A16807200029DE
:103CA00007D0B819FDF792FD24792F7839192970BA
:103CB0000020F8BDF8B55F4656464D464446F0B480
:103CC00081468846161C016B002938D03423C25C1B
:103CD000002A36D000241625AA463427BB466000A9
:103CE00001198B004A46156BED1837782879033097
:103CF0004246D055791CCBB25046D0540237FFB261
:103D000037702888D119FFF711FEC219D0B2307070
:103D1000AA88002A0AD0A968002914D04346181896
:103D2000FDF754FD2D7931784F1937700134E4B225
:103D30004A465A441078A042D1D8002004E0072017
:103D400002E0002000E007203CBC90469946A246D5
:103D5000AB46F8BD70B582B0041C0E1C151C0023C8
:103D6000137001780020002905D0201C311CFFF7BA
:103D7000E3FD002862D1A278002A05D0301C291C5E
:103D8000FFF718FE002859D1A388002B07D0201D6B
:103D90000121321C2B1CFFF73DFF00284ED1E168AA
:103DA000002907D000200856311C2A1CFFF726FEE8
:103DB000002843D1228A002A09D0201C1030009507
:103DC00002210622331CFFF7A1FE002836D1238BE7
:103DD000002B09D0201C1830009503210722331C2A
:103DE000FFF794FE002829D1218C002909D0201C3E
:103DF0002030009514211522331CFFF787FE002880
:103E00001CD1A26A002A06D0101C311C2A1CFFF704
:103E1000BDFE002812D1E36A002B06D0181C311C0D
:103E20002A1CFFF719FF002808D13421625C002A00
:103E300004D0201C311C2A1CFFF73CFF02B070BDCF
:103E400030B593B0041C0D1C00236A464732137032
:103E5000013A137000280DD0FFF7C4FE002824D1CA
:103E6000201C09A96A464732FFF774FF09AC0028F5
:103E700001D01AE00024002D0ED0281CFFF7C2FE4E
:103E8000002812D1281C01A96A464632FFF762FFBA
:103E900001AA002801D008E00022684647300178D6
:103EA00001380378201CFFF739FD13B030BDC04640
:103EB00075DF704776DF70477ADF70477BDF7047CA
:103EC000427811020378081C1843704708B5FFF7C1
:103ED000F7FF0123184008BD4388054A11880020D8
:103EE000994203D8024A5188994240417047C046DE
:103EF0009029002000B583B0194B188819498842D1
:103F00002CD0194A13780133D9B21170174A137B98
:103F10008B420AD31649FFF7CBFF00281ED0134B64
:103F2000996900291AD0884718E000210E4A1170BB
:103F30000E4B197C002909D03B21FFF7BBFF00285D
:103F400004D00A4A9369002B00D09847074841697A
:103F5000002903D001A800220270884703B000BDE9
:103F60008C290020FFFF0000682900206C29002018
:103F70009029002000B583B01A48FFF7ADFF002854
:103F800022D119480378002B08D01848416900292C
:103F900022D001A80022027088471DE014490A7847
:103FA000002A02D1114B596801E010488168114A7A
:103FB00010680022FFF7C0F800280DD00B498B696C
:103FC000002B09D0984707E0084B5969002903D016
:103FD00001A80122027088470020034B187003B02B
:103FE00000BDC046602900205D2900206C2900200A
:103FF000682900208829002008B58288084B1A808B
:10400000011C0E3107480822FDF7E0FB002006499D
:104010000870064AD389002B01D1FFF7ABFF08BD1A
:104020008C29002060290020682900206C290020AC
:1040300008B5811D03480822FDF7C8FBFFF79AFF6A
:1040400008BDC0466029002008B501225042084B37
:1040500018800021074A117007480068FFF79AF896
:10406000002804D0054B9969002900D0884708BD75
:104070008C29002068290020882900206C29002034
:1040800008B5C2880D4BD9898A4215D1C28B022A44
:1040900012D12030FFF71AFF002802D0FFF76AFF85
:1040A0000AE007480068FFF775F8002804D0034BC2
:1040B0009969002900D0884708BDC0466C290020B6
:1040C0008829002070B516490B1C021C70CA70C3E9
:1040D000191C70CA70C114680C600025114E35702F
:1040E000016800290AD0104C201C0822FDF76EFB45
:1040F000201CFFF7E1FE002805D010E00A48FFF77A
:10410000DDFE00280BD101204242084B1A8000211D
:10411000074D297007480021074AFEF7B7FF70BD19
:104120006C2900205D290020902900208C29002086
:104130006829002088290020F53E020008B5038880
:10414000112B0BD002D8102B10D104E0122B0BD066
:10415000502B0BD105E0FFF74FFF07E0FFF774FF8F
:1041600004E0FFF78DFF01E0FFF762FF08BDC046E6
:1041700008B5054B187801225040187003490B68A8
:10418000002B00D0984708BD9C29002098290020CA
:104190000B780370497841700220704738B5041CD1
:1041A0000D1C081CFDF77CFC2080656038BDC046F6
:1041B0000870000A487002207047C046A0DF7047B0
:1041C000A2DF704738B5041C0D1E04D10020332136
:1041D000134AFBF78DFF002C04D100203421104A34
:1041E000FBF786FF29682170FF2210022B6803402D
:1041F000190A6170FF221304296819400A0CA27081
:10420000E978E1702A792271A9686171AA68104081
:10421000000AA071AD682B401B0CE37138BDC0468D
:10422000308F020070B5041C0D1E04D100204B21FC
:10423000124AFBF75DFF002C04D100204C210F4AED
:10424000FBF756FF2B7823706888611CFFF7B0FFDF
:10425000461CF6B2A888A119FFF7AAFF3018C6B20B
:10426000E888A119FFF7A4FF3118CAB2072A04D0C1
:1042700000205421014AFBF73BFF70BD308F020044
:10428000F0B5474680B48EB080460E1C151C1F1C2E
:10429000002904D100206D21194AFBF729FF002DC8
:1042A00004D100206E21164AFBF722FF06A9002444
:1042B00006940794089409940A940B940C9402238E
:1042C0000B700DAA01209070434613803B7868461E
:1042D00003707F7847700223837001AF03940494C6
:1042E000019200AC02943D81BD810596054E308857
:1042F0003A1C149BFFF764FF0EB004BC9046F0BD5F
:10430000308F0200E829002030B587B0041C05A9D1
:1043100001238B704C48088001204C4AFFF74EFF68
:10432000051E00D08CE02288002A09D0231C3C33D3
:104330004749009147486168FFF7A2FF002872D102
:104340002289002A09D0231C3C334348009043486B
:10435000E168FFF795FF002867D1228A002A09D07B
:10436000231C3C333E4900913E486169FFF788FFBA
:1043700000285CD1228B002A09D0231C3C333A4808
:1043800000903A48E169FFF77BFF002851D1228C69
:10439000002A09D0231C3C33354900913548616A15
:1043A000FFF76EFF002846D1228D002A09D0231C7A
:1043B0003C33314800903148E16AFFF761FF002843
:1043C0003BD1216B00290FD003A8FFF7FBFE231C74
:1043D0003C332B4A00922B4803A90822FFF750FFD9
:1043E000002801D0051C2BE0636B002B0AD0196854
:1043F0001A79231C3C33244800902448FFF740FFDF
:1044000000281CD1A16B00291AD003A8FFF70AFFCE
:10441000231C3C331E4D00951E4803A90722FFF7BD
:104420002FFF051C0CE0051C0AE0051C08E0051C1C
:1044300006E0051C04E0051C02E0051C00E0051C6C
:10444000281C07B030BDC0460A180000E82900202B
:10445000B8290020292A0000A8290020242A0000C9
:10446000D8290020252A0000D0290020272A000072
:10447000E0290020262A0000A0290020282A000088
:10448000B0290020232A0000C02900202A2A000089
:10449000C8290020502A0000A0DF7047A2DF704723
:1044A000A3DF7047427811020378081C1843704755
:1044B00008B5FFF7F7FF0123184008BD8B8843823A
:1044C0007047C046012359424182704730B583B0DE
:1044D000041C037D002B19D0CA884089824215D163
:1044E000CD8B022D12D12568002D0FD0081C203055
:1044F000FFF7DEFF002803D0002201A8027002E0CF
:10450000012101AB1970201C01A9A84703B030BDDF
:10451000F0B5474680B490B0051C0C1C037D002B01
:1045200058D008AF0023112038704A7B7A700221DE
:10453000B97009930A930B930C930D930F93122662
:1045400009AB1E703E1C0E9602A901208870294FEF
:104550000F8001AB0027A27B1A70E67B5E700222FF
:104560009A706E46227BF270033603AA059706976F
:1045700003915360108190811661A888AB1D09A931
:10458000FFF78CFF002831D1A16800291FD002AFAE
:104590000120B870184B3B8001AE0022904632805B
:1045A000247C34700223B3706846FFF7F1FD03A941
:1045B00042460592069203974E600881888100AFBB
:1045C0000F61E8882A1C0E32FFF76AFF0EE0002414
:1045D000EC810BE0002009900A900B900C900D905C
:1045E0000F90022209A90A700026ACE710B004BCA3
:1045F0009046F0BD192A00000829000008B50B8874
:10460000112B06D0502B07D0102B07D1FFF756FFE8
:1046100004E0FFF757FF01E0FFF758FF08BDC04671
:1046200030B583B0041C0D1C0B68036001204142AF
:1046300061822A792275217401A901238B700748B0
:104640000880221D0120FFF727FF002803D1201C2E
:10465000291CFFF75DFF03B030BDC0460F180000F6
:1046600082B00190C046C046C046C046C046C04663
:10467000C046C046C046C046C046C046C046C0460A
:10468000019B013B0193002BECD102B07047C04667
:1046900010B582B00190019B002B09D0054C019808
:1046A00001380190201CFFF7DBFF01990029F6D1AA
:1046B00002B010BDE703000000280EDA0F2202400E
:1046C000083A930899000B4A8B1859680322104046
:1046D000C000C1400906880F0AE08208C03291007C
:1046E000054BC95803221040C000C1400906880F7D
:1046F0007047C04618ED00E000E100E02BDF704796
:104700002CDF704708B5064B5868C105CA0D042058
:10471000002A04D0103A50B2FFF7CEFFC0B208BD55
:1047200000ED00E003231840434258417047C04663
:10473000044B1A880021824201D90130C1B2081C01
:104740007047C046F8290020F0B5474680B480463F
:104750000F1C161C104B1D7810490C780520A54223
:1047600016D00C1C0D780878FFF7E2FF20700C487B
:1047700003886B430B4A1168CC1840460460ED0077
:10478000094B1A6851198C883C800F6837600020EB
:1047900004BC9046F0BDC046F7290020F629002051
:1047A000F4290020F0290020EC29002070B5061C17
:1047B0000D1C141C101CFFF7B5FF021C0720002A5B
:1047C00011D0094B1C60681CC1008AB2A418074BA9
:1047D0001C60002006490870064A1070064C2680AE
:1047E000064E3580002070BDEC290020F029002005
:1047F000F7290020F6290020F4290020F8290020BC
:10480000F0B54F464646C0B483B0061C0C1C171CBE
:10481000304B1D8809208D4257D300226846C27153
:10482000FFF770FF051E012D0DD068460730FFF71A
:1048300065FF022801D172B605E0002803D0592196
:10484000254AFBF755FC25490878FFF771FF244BF3
:104850001A78904209D0214988460B789946087801
:10486000FFF766FF4246107001E01E488146012DA9
:104870000CD062B66D46E879FFF742FF022805D0FA
:10488000002803D06121144AFBF732FC04201549AB
:1048900089451AD04846C300134A1568ED182F60A1
:1048A000002E0FD0002C0DD00A4F398848464143C6
:1048B0000E4B1A685018311C221CFCF787FFAC8085
:1048C000002002E00026AE80002003B00CBC904621
:1048D0009946F0BDF4290020688F0200F7290020D6
:1048E000F6290020FFFF0000EC290020F02900201D
:1048F00010B584B06C460A3403E021880398019B0C
:10490000984703A8211C01AAFFF71EFF0028F4D036
:1049100004B010BD1F23184001218140014A1160DD
:104920007047C04600E100E01F231840012181408C
:10493000081CC02253000149C850704700E100E044
:1049400070B5002814DA0F230340083B9A0894003E
:10495000104EA3195D6803221040C000FF26341CCE
:104960008440A54389010E40864035435D6010E0D8
:104970008208094BC0329200D55803242040C00061
:10498000FF24261C8640B54389010C408440254302
:10499000D55070BD18ED00E000E100E003231840A1
:1049A000434258417047C046F0B55F4656464D46B3
:1049B0004446F0B400230126A022D205254CA2468D
:1049C000C025AF02B8468024A502AC46371C9F40E4
:1049D000394215D0C4683C4203D12743C760E14641
:1049E00002E0BC43C460C146E0256F00DC19A400AE
:1049F000A55857463D40A550A7584D462F43A750B0
:104A000001331D1C341C9C4021421FD005E03CBCDE
:104A100090469946A246AB46F0BDC76827420DD1E5
:104A200010E0C135FF35AD00AC58271C5446274077
:104A3000AF50AF585C463C43AC5007E0A743C7605B
:104A4000C346EEE73C43C460E346EAE70133202B6C
:104A5000BCD1DCE7FFFFFCFFF0B583001818810034
:104A6000154A1468641800230120A025EA05134E96
:104A7000071C9F402168394208D0E0256F00D919F2
:104A80008F00BD583540BD50B958B9500133191C7D
:104A9000051C9D4027682F4209D000E0F0BDC131C0
:104AA000FF3189008D5835408D508F588F5001331C
:104AB000202BDDD1F2E7C046002A0020FFFFFCFFDB
:104AC000F8B55F4656464D464446F0B4A223D8009A
:104AD000A022D1050E580024BE256F00254BDC51C5
:104AE00025480278002A3FD0002424498946012520
:104AF000A846234F4B4618684246A24039681142E7
:104B00002CD0A5002B199A008518E86870402968F8
:104B100081438A46281CFFF747FFA223D800A02222
:104B2000D1050B5873400CD01E43E86870402968CB
:104B300081438B46281CFFF737FF524659460A43EC
:104B40009246A96853461940B143504630406A68BE
:104B50001040031C0B4301D02D69A8470134E4B277
:104B600005480178A142C5D83CBC90469946A2466A
:104B7000AB46F8BD00600040FA290020002A002062
:104B8000FC29002038B5051C0C1E28D0081CFFF796
:104B900005FF011C0720002922D0124B1C6012487F
:104BA00005700021114A1170114B1960A8004519B8
:104BB000AA00201C0021FCF733FE01246142C2221E
:104BC00093000C48C1500620FFF7AEFE06200121DD
:104BD000FFF7B6FE0620FFF79DFE002000E007204D
:104BE00038BDC046002A0020FB290020FA290020F9
:104BF000FC29002000600040F8B5124C2468002C0D
:104C00001BD0002B1BD0104D2E78104F3F78042561
:104C1000B74215D9B500AF19BD006419171C0F4371
:104C200027606160A26023610670721C064B1A70D7
:104C3000301CFFF711FF002502E0082500E00725E2
:104C4000281CF8BD002A0020FA290020FB2900209A
:104C5000F0B557464E464546E0B4031C384A166840
:104C6000002E4FD037490C7807209C424BD90025A5
:104C7000BE204700344AD551A221CC00A025E8052A
:104C80000759BC46314A1168002905D18024250600
:104C9000C12087002C4AD55101249C4021432B4D33
:104CA00029609900CB18980031180023CB600125AA
:104CB000A026F205264FC024A00282468026B40218
:104CC000A046281C98400E68064211D054466646FD
:104CD000064203D1CC682043C8604446E020460029
:104CE0009819800086583E40865086583443845038
:104CF00001331C1C281C98400E6806421CD007E09B
:104D0000002000E008201CBC90469946A246F0BD59
:104D1000D146664606420AD0C134FF34A400A058EA
:104D20003840A050A0584E463043A05004E0CE6812
:104D30003043C860C146EFE70133202BC1D1DFE724
:104D4000002A0020FA29002000600040FC290020F1
:104D5000FFFFFCFF10B5041C0E4B1868002817D08D
:104D60000D490A780720A24213D9201CFFF774FED0
:104D70000123A340094801689943016000200029EC
:104D800007D180221406C2239900054A545000E03E
:104D9000082010BD002A0020FA290020FC2900204C
:104DA0000060004010B50C4B1B68002B11D00B4A63
:104DB0001478072284420DD9A222D200A024E4054F
:104DC000A258840020188400E35813400B6000228E
:104DD00000E00822101C10BD002A0020FA29002043
:104DE00023DF70474EDF704710DF70470323184002
:104DF000434258417047C04660DF7047C1DF70478B
:104E000008B5081C111CFBF7C5F908BDF0B55746DD
:104E10004E464546E0B482B0344B187800285FD047
:104E200033490C6863425C41324A15686B425D410C
:104E3000314E366873425E4101AF012399462C48DA
:104E40008246002C11D1381CFFF7CCFF05280BD06F
:104E5000002804D06921294AFBF74AF905E00198A6
:104E600051460A68904700E04C46002D18D1244B6B
:104E70001888388023490A689046101C391CFFF7AF
:104E8000BBFF05280BD0002804D080211B4AFBF76C
:104E90002FF905E0174B19684046884700E04D465A
:104EA000002E17D1174802689046111C01310232BA
:104EB0004046FFF7A3FF05280BD0002804D0982117
:104EC0000E4AFBF715F905E00B4A13684046984770
:104ED00000E04E46002CB4D0002DB2D0002EB0D051
:104EE00002B01CBC90469946A246F0BD042A0020A0
:104EF0000C2A0020142A0020082A0020A08F02007B
:104F0000062A0020102A0020F0B5474680B4061C6F
:104F10000C1C90461F1C00291AD0081CFFF766FFC6
:104F2000051C0720002D14D00B4B1C600B4842467B
:104F300002800B490F60301C0A49FFF755FF00281B
:104F400007D10126084C26701620FFF749FF00E024
:104F5000072004BC9046F0BD102A0020062A00203D
:104F6000182A0020014E0200042A0020002803D045
:104F7000024B1860002000E00E207047142A002029
:104F8000002803D0024B1860002000E00E2070477C
:104F9000082A0020002803D0024B1860002000E0FF
:104FA0000E2070470C2A002008B5084B186800280E
:104FB00008D08047002807D099214900044AFBF710
:104FC00097F801E0FFF722FF08BDC046182A00202D
:104FD000A08F020000B585B01D4B1878022807D0BD
:104FE00003281AD0012831D101221A494A622DE042
:104FF00001A900220A700292039217480368002B4D
:1050000004D10020BA21154AFBF772F812490B6847
:1050100001980299039A984718E001AB0120187093
:105020000C4A0F49535802930E48125803920A49EA
:105030000B68002B04D10020C321084AFBF758F865
:105040000548036801980299039A984705B000BD86
:10505000302A002000400040282A0020DC8F020077
:105060003C0500004C05000008B5024B1870FFF726
:10507000B1FF08BD302A002008B5942358001B4A10
:10508000115800291FD0002094235900505018486F
:105090000378012B17D117490868131C164A98503A
:1050A00016490868164A985016490868A722D10080
:1050B000585015480168A922D00019500121996261
:1050C0000220FFF7D1FF82235800084A1158002917
:1050D0000AD00020822359005050054A1078022837
:1050E00002D10320FFF7C0FF08BDC04600400040CA
:1050F000302A0020242A0020440500002C2A002009
:1051000034050000202A00201C2A0020074B084AF2
:105110001360191C103107480160191C2031064A20
:105120001160064806490B5001207047382A0020BC
:10513000682A00206C2A0020342A00200405000080
:1051400000E0004038B5051C194B1868814202D0B8
:105150001022FCF73BFB174800218022540001512C
:10516000012303608020430412498022500004E0A0
:10517000013B0A58002A16D002E00C58002CF7D048
:105180000021802358000B4C21500B4A11688D429E
:1051900007D0281C1022FCF719FB012002E0002098
:1051A00000E0012038BD013B002BE6D1F7E7C04607
:1051B0006C2A002000E00040342A002008B5011CC1
:1051C000024B18681022FCF701FB08BD682A00207A
:1051D0007047C04600B585B003AA7F231840107001
:1051E00051700023009307480221FCF7CFFA0238E0
:1051F000431E9841002803D02B21034AFAF778FF79
:1052000005B000BD702A00200C90020008B53720C0
:10521000A221FFF7DFFF08BD00B585B003AA8023F8
:105220005B42184310700020507000910748012124
:105230000123FCF7ABFA0138431E9841002803D044
:105240002221034AFAF754FF05B000BD702A00205E
:105250000C90020010B582B06C4607346A20211C05
:10526000FFF7DAFF217820239943102001432170B2
:105270006A20FFF7AFFF02B010BDC04608B5011CA1
:105280001E20FFF7A7FF08BD80235901C140081C5D
:105290007047C04610B5041C3C20211CFFF7BCFF22
:1052A000611C3B20FFF7B8FFA11C3E20FFF7B4FFB5
:1052B000E11C3D20FFF7B0FF211D4020FFF7ACFFB0
:1052C000611D3F20FFF7A8FF062010BD08B5C100F3
:1052D000C9B21C20FFF77EFF08BDC04610B582B0E2
:1052E0006C4607343A20211CFFF796FF207802B065
:1052F00010BDC04608B58108C9B21F20FFF76AFF7C
:1053000008BDC04670B582B0041C0E1C38200021B8
:10531000FFF760FF23200021FFF75CFF6A200021D8
:10532000FFF758FF6B200021FFF754FF6C20072187
:10533000FFF750FF6D4607351D20291CFFF76CFF56
:105340002978082319431D20FFF744FF6920C02155
:10535000FFF740FF301CFFF7CDFF1E20211CFFF799
:1053600039FF6B202821FFF735FF201CFFF78CFF4A
:10537000001B0C30FFF78CF9FFF7B0FF38204021FD
:10538000FFF728FF02B070BDF0B591B000230E9377
:105390000EAA938006930793089309930A930B939D
:1053A0000C930CA88380FA27BF00061C301CFFF763
:1053B00071FF0020315E0091CC170194069B079C81
:1053C000009801991B184C41069307940221755EC1
:1053D0000295EA170392089C099D0299039A6418A2
:1053E0005541089409950421735E1C1CDD170A9829
:1053F0000B99001969410A900B91013FBFB2301C13
:10540000FFF748FF0022B55E0095EA170192069C5F
:10541000079D0099019A6418554106940795022149
:10542000735E0293D8170390089A099B029C039D10
:1054300012196B41089209930421735E1C1CDD173D
:105440000A990B9A09196A410A910B92013FBFB25E
:10545000002FABD10CAD06980799604B5E4A02F065
:1054600065FF2880089809995C4B5B4A02F05EFF53
:1054700068800A980B99594B574A02F057FFA88049
:105480005748FBF757FE5748FBF754FE281C0221EC
:10549000FBF762FE544E301CFBF74CFE5348FBF703
:1054A00049FE684632300221FBF756FE301CFBF7FE
:1054B00041FE4F48FBF73EFE0DA80221FBF74CFED4
:1054C0004C48FBF737FE0EAC772069463931FFF7C1
:1054D000A3FE7820211CFFF79FFE7A2069463B310E
:1054E000FFF79AFE7B2069463A31FFF795FE7D2053
:1054F00069463D31FFF790FE7E200FA9FFF78CFE35
:10550000208842082280638859086180A7887E0825
:10551000A6803948FBF70EFE201C0621FBF71CFE77
:105520000D20FBF7FDFD0A20FBF7FAFD334F381C79
:10553000FBF700FE20882A88831A238061886E8802
:10554000881B6080A288AD88531BA3802C48FBF782
:10555000F1FD201C0621FBF7FFFD0D20FBF7E0FD10
:105560000A20FBF7DDFD381CFBF7E4FD27887E00F1
:10557000B1B22680608842006280A5886B00A3805B
:10558000090A7720FFF726FE21787820FFF722FE10
:10559000E1787A20FFF71EFEA1787B20FFF71AFE44
:1055A00061797D20FFF716FE21797E20FFF712FE3C
:1055B0006C4617346A20211CFFF72EFE27787A06E6
:1055C00003D5042637436946CF756846C17D6A20F6
:1055D000FFF700FE11B0F0BDE8030000000000007E
:1055E00064900200849002008C900200909002006F
:1055F000989002001C940200A09002008C9202007D
:10560000B0900200C046C04608B50B48FBF792FDBB
:105610006B208021FFF7DEFD6420FFF739F868205A
:10562000FF21FFF7D7FD6A200121FFF7D3FD64209A
:10563000FFF72EF808BDC046C090020008B5142040
:10564000002100F0A1FC08BD08B51420012100F0E4
:105650009BFC142000F08AFC08BDC046F0B547460C
:1056600080B486B00CAC2578AC460DAE3778B84621
:105670000EAC26780FAD2F7810AC258864460094C8
:10568000444601941D4C0294FBF7FCFE041E03D01B
:105690001B48FBF74FFD2BE0FFF7B6FF17226A44CC
:1056A00090467520111CFFF7B7FD40460378702B1C
:1056B00013D01448FBF73EFD684617300121FBF775
:1056C0004BFD0D20FBF72CFD0A20FBF729FD0120E7
:1056D000B12189000C4AFAF70BFDFFF797FD381C42
:1056E000FFF7F4FDFFF7B6FD301C291CFFF70AFE9B
:1056F000201C06B004BC9046F0BDC046702A0020B5
:10570000CC900200F49002000C90020008B5002A30
:1057100001D1081C04E050434018511C02F0A4FDC4
:1057200008BDC04610B5012819D00238002811DD87
:105730001049431E0122141C1C400F4A01238342BE
:105740000FDB08E04A43D40B4C43E20B02338342A5
:10575000F8DB00E0074A09484243D00B00E0012093
:1057600010BD002CEED04A43D20B01338342E9DB5B
:10577000F1E7C04648810000938200003C0A000027
:1057800010B584B001906B46D970081C3BD0FFF770
:10579000C9FF011C02901F48019A504302F016FDF8
:1057A00003901D49441801201C4B9C422FD91C48D2
:1057B000FBF7C0FC03A80421FBF7CEFC194C201C0E
:1057C000FBF7B8FC1848FBF7B5FC6846033001212D
:1057D000FBF7C2FC201CFBF7ADFC1448FBF7AAFC4E
:1057E00001A80421FBF7B8FC201CFBF7A3FC104820
:1057F000FBF7A0FC02A80421FBF7AEFC201CFBF782
:1058000099FC002003E00B48FBF794FC012004B056
:1058100010BDC0461027000077ECFFFF0E270000E8
:10582000289102008C92020030910200389102000F
:105830003C91020044910200F0B55F4656464D4649
:105840004446F0B487B00023049304AA938003A8CD
:1058500003808370FFF7F8FE1420FEF719FFFFF7AF
:10586000EDFE1420FEF714FFFFF7CEFE1420FEF726
:105870000FFF1D200221FFF7ADFC1C200021FFF7C8
:10588000A9FC1420FEF704FF002504AC201CFFF740
:1058900001FD0022A15E48462A1CFFF737FF814622
:1058A0000223E15E381C2A1CFFF730FF071C04228C
:1058B000A15E01982A1CFFF729FF01900120FEF745
:1058C000E7FE0135201CFFF7E5FC0023E15E4846BA
:1058D0002A1CFFF71BFF81460222A15E381C2A1CEE
:1058E000FFF714FF071C0423E15E01982A1CFFF751
:1058F0000DFF01900120FEF7CBFE0135C82DC5D16B
:105900001C20E021FFF766FC1420FEF7C1FE0021F9
:10591000049104AB998000251C1C201CFFF7BAFCE5
:105920000022A15E50462A1CFFF7F0FE82460223A9
:10593000E15E40462A1CFFF7E9FE80460422A15E94
:10594000301C2A1CFFF7E2FE83460120FEF7A0FE72
:105950000135201CFFF79EFC0023E15E50462A1C07
:10596000FFF7D4FE82460222A15E40462A1CFFF7C2
:10597000CDFE80460423E15E58462A1CFFF7C6FE92
:10598000061C0120FEF784FE0135C82DC5D1282054
:10599000FEF77EFE52464846101AFFF719FC814674
:1059A0004146C81BFFF714FC071C019BF01AFFF7C8
:1059B0000FFC051C03AC0D20211CFFF72DFC0E2055
:1059C00069460D31FFF728FC0F2069460E31FFF7BD
:1059D00023FC1420FEF75CFE21784846FFF7D0FE3A
:1059E000002812D003AE7178381CFFF7C9FE0028DA
:1059F0000BD003AA9178281CFFF7C2FE002804D020
:105A00000848FBF797FB002004E00748FBF792FBF0
:105A10000120404207B03CBC90469946A246AB46A6
:105A2000F0BDC0468C8D020048910200C130FF30AD
:105A300080000122A023D9054250704701238340F2
:105A4000181CA121CB00A022D105C8507047C04628
:105A500001238340181C0249A022D30558507047E7
:105A60000C05000023DF704727DF704728DF7047F1
:105A700010B53A4B19883A4A91420CD98B00591803
:105A80008800384A8018FA24A10002F0EDFB643047
:105A9000354B18705EE0354881423AD95A2251435D
:105AA00033480818FA2102F0DFFB011C0A31CCB29E
:105AB000201C032102F0CEFBCB43E218D0B22A49CE
:105AC0000870622804D962200870622000230FE069
:105AD000092805D80A22244B1A7001230A2005E060
